\! pg_filedump test/17726

*******************************************************************
* PostgreSQL File/Block Formatted Dump Utility
*
* File: test/17726
* Options used: None
*******************************************************************

Block    0 ********************************************************
<Header> -----
 Block Offset: 0x00000000         Offsets: Lower     676 (0x02a4)
 Block: Size 8192  Version    4            Upper     704 (0x02c0)
 LSN:  logid      0 recoff 0x1311ec28      Special  8192 (0x2000)
 Items:  163                      Free Space:   28
 Checksum: 0x0000  Prune XID: 0x00000000  Flags: 0x0000 ()
 Length (including item array): 676

<Data> -----
 Item   1 -- Length:   32  Offset: 8160 (0x1fe0)  Flags: NORMAL
 Item   2 -- Length:   32  Offset: 8128 (0x1fc0)  Flags: NORMAL
 Item   3 -- Length:   34  Offset: 8088 (0x1f98)  Flags: NORMAL
 Item   4 -- Length:   33  Offset: 8048 (0x1f70)  Flags: NORMAL
 Item   5 -- Length:   33  Offset: 8008 (0x1f48)  Flags: NORMAL
 Item   6 -- Length:   32  Offset: 7976 (0x1f28)  Flags: NORMAL
 Item   7 -- Length:   34  Offset: 7936 (0x1f00)  Flags: NORMAL
 Item   8 -- Length:   34  Offset: 7896 (0x1ed8)  Flags: NORMAL
 Item   9 -- Length:   33  Offset: 7856 (0x1eb0)  Flags: NORMAL
 Item  10 -- Length:   32  Offset: 7824 (0x1e90)  Flags: NORMAL
 Item  11 -- Length:   35  Offset: 7784 (0x1e68)  Flags: NORMAL
 Item  12 -- Length:   35  Offset: 7744 (0x1e40)  Flags: NORMAL
 Item  13 -- Length:   37  Offset: 7704 (0x1e18)  Flags: NORMAL
 Item  14 -- Length:   37  Offset: 7664 (0x1df0)  Flags: NORMAL
 Item  15 -- Length:   36  Offset: 7624 (0x1dc8)  Flags: NORMAL
 Item  16 -- Length:   36  Offset: 7584 (0x1da0)  Flags: NORMAL
 Item  17 -- Length:   38  Offset: 7544 (0x1d78)  Flags: NORMAL
 Item  18 -- Length:   37  Offset: 7504 (0x1d50)  Flags: NORMAL
 Item  19 -- Length:   37  Offset: 7464 (0x1d28)  Flags: NORMAL
 Item  20 -- Length:   35  Offset: 7424 (0x1d00)  Flags: NORMAL
 Item  21 -- Length:   39  Offset: 7384 (0x1cd8)  Flags: NORMAL
 Item  22 -- Length:   39  Offset: 7344 (0x1cb0)  Flags: NORMAL
 Item  23 -- Length:   41  Offset: 7296 (0x1c80)  Flags: NORMAL
 Item  24 -- Length:   40  Offset: 7256 (0x1c58)  Flags: NORMAL
 Item  25 -- Length:   40  Offset: 7216 (0x1c30)  Flags: NORMAL
 Item  26 -- Length:   39  Offset: 7176 (0x1c08)  Flags: NORMAL
 Item  27 -- Length:   41  Offset: 7128 (0x1bd8)  Flags: NORMAL
 Item  28 -- Length:   41  Offset: 7080 (0x1ba8)  Flags: NORMAL
 Item  29 -- Length:   40  Offset: 7040 (0x1b80)  Flags: NORMAL
 Item  30 -- Length:   35  Offset: 7000 (0x1b58)  Flags: NORMAL
 Item  31 -- Length:   39  Offset: 6960 (0x1b30)  Flags: NORMAL
 Item  32 -- Length:   39  Offset: 6920 (0x1b08)  Flags: NORMAL
 Item  33 -- Length:   41  Offset: 6872 (0x1ad8)  Flags: NORMAL
 Item  34 -- Length:   40  Offset: 6832 (0x1ab0)  Flags: NORMAL
 Item  35 -- Length:   40  Offset: 6792 (0x1a88)  Flags: NORMAL
 Item  36 -- Length:   39  Offset: 6752 (0x1a60)  Flags: NORMAL
 Item  37 -- Length:   41  Offset: 6704 (0x1a30)  Flags: NORMAL
 Item  38 -- Length:   41  Offset: 6656 (0x1a00)  Flags: NORMAL
 Item  39 -- Length:   40  Offset: 6616 (0x19d8)  Flags: NORMAL
 Item  40 -- Length:   34  Offset: 6576 (0x19b0)  Flags: NORMAL
 Item  41 -- Length:   38  Offset: 6536 (0x1988)  Flags: NORMAL
 Item  42 -- Length:   38  Offset: 6496 (0x1960)  Flags: NORMAL
 Item  43 -- Length:   40  Offset: 6456 (0x1938)  Flags: NORMAL
 Item  44 -- Length:   39  Offset: 6416 (0x1910)  Flags: NORMAL
 Item  45 -- Length:   39  Offset: 6376 (0x18e8)  Flags: NORMAL
 Item  46 -- Length:   38  Offset: 6336 (0x18c0)  Flags: NORMAL
 Item  47 -- Length:   40  Offset: 6296 (0x1898)  Flags: NORMAL
 Item  48 -- Length:   40  Offset: 6256 (0x1870)  Flags: NORMAL
 Item  49 -- Length:   39  Offset: 6216 (0x1848)  Flags: NORMAL
 Item  50 -- Length:   34  Offset: 6176 (0x1820)  Flags: NORMAL
 Item  51 -- Length:   38  Offset: 6136 (0x17f8)  Flags: NORMAL
 Item  52 -- Length:   38  Offset: 6096 (0x17d0)  Flags: NORMAL
 Item  53 -- Length:   40  Offset: 6056 (0x17a8)  Flags: NORMAL
 Item  54 -- Length:   39  Offset: 6016 (0x1780)  Flags: NORMAL
 Item  55 -- Length:   39  Offset: 5976 (0x1758)  Flags: NORMAL
 Item  56 -- Length:   38  Offset: 5936 (0x1730)  Flags: NORMAL
 Item  57 -- Length:   40  Offset: 5896 (0x1708)  Flags: NORMAL
 Item  58 -- Length:   40  Offset: 5856 (0x16e0)  Flags: NORMAL
 Item  59 -- Length:   39  Offset: 5816 (0x16b8)  Flags: NORMAL
 Item  60 -- Length:   34  Offset: 5776 (0x1690)  Flags: NORMAL
 Item  61 -- Length:   38  Offset: 5736 (0x1668)  Flags: NORMAL
 Item  62 -- Length:   38  Offset: 5696 (0x1640)  Flags: NORMAL
 Item  63 -- Length:   40  Offset: 5656 (0x1618)  Flags: NORMAL
 Item  64 -- Length:   39  Offset: 5616 (0x15f0)  Flags: NORMAL
 Item  65 -- Length:   39  Offset: 5576 (0x15c8)  Flags: NORMAL
 Item  66 -- Length:   38  Offset: 5536 (0x15a0)  Flags: NORMAL
 Item  67 -- Length:   40  Offset: 5496 (0x1578)  Flags: NORMAL
 Item  68 -- Length:   40  Offset: 5456 (0x1550)  Flags: NORMAL
 Item  69 -- Length:   39  Offset: 5416 (0x1528)  Flags: NORMAL
 Item  70 -- Length:   36  Offset: 5376 (0x1500)  Flags: NORMAL
 Item  71 -- Length:   40  Offset: 5336 (0x14d8)  Flags: NORMAL
 Item  72 -- Length:   40  Offset: 5296 (0x14b0)  Flags: NORMAL
 Item  73 -- Length:   42  Offset: 5248 (0x1480)  Flags: NORMAL
 Item  74 -- Length:   41  Offset: 5200 (0x1450)  Flags: NORMAL
 Item  75 -- Length:   41  Offset: 5152 (0x1420)  Flags: NORMAL
 Item  76 -- Length:   40  Offset: 5112 (0x13f8)  Flags: NORMAL
 Item  77 -- Length:   42  Offset: 5064 (0x13c8)  Flags: NORMAL
 Item  78 -- Length:   42  Offset: 5016 (0x1398)  Flags: NORMAL
 Item  79 -- Length:   41  Offset: 4968 (0x1368)  Flags: NORMAL
 Item  80 -- Length:   35  Offset: 4928 (0x1340)  Flags: NORMAL
 Item  81 -- Length:   39  Offset: 4888 (0x1318)  Flags: NORMAL
 Item  82 -- Length:   39  Offset: 4848 (0x12f0)  Flags: NORMAL
 Item  83 -- Length:   41  Offset: 4800 (0x12c0)  Flags: NORMAL
 Item  84 -- Length:   40  Offset: 4760 (0x1298)  Flags: NORMAL
 Item  85 -- Length:   40  Offset: 4720 (0x1270)  Flags: NORMAL
 Item  86 -- Length:   39  Offset: 4680 (0x1248)  Flags: NORMAL
 Item  87 -- Length:   41  Offset: 4632 (0x1218)  Flags: NORMAL
 Item  88 -- Length:   41  Offset: 4584 (0x11e8)  Flags: NORMAL
 Item  89 -- Length:   40  Offset: 4544 (0x11c0)  Flags: NORMAL
 Item  90 -- Length:   35  Offset: 4504 (0x1198)  Flags: NORMAL
 Item  91 -- Length:   39  Offset: 4464 (0x1170)  Flags: NORMAL
 Item  92 -- Length:   39  Offset: 4424 (0x1148)  Flags: NORMAL
 Item  93 -- Length:   41  Offset: 4376 (0x1118)  Flags: NORMAL
 Item  94 -- Length:   40  Offset: 4336 (0x10f0)  Flags: NORMAL
 Item  95 -- Length:   40  Offset: 4296 (0x10c8)  Flags: NORMAL
 Item  96 -- Length:   39  Offset: 4256 (0x10a0)  Flags: NORMAL
 Item  97 -- Length:   41  Offset: 4208 (0x1070)  Flags: NORMAL
 Item  98 -- Length:   41  Offset: 4160 (0x1040)  Flags: NORMAL
 Item  99 -- Length:   40  Offset: 4120 (0x1018)  Flags: NORMAL
 Item 100 -- Length:   40  Offset: 4080 (0x0ff0)  Flags: NORMAL
 Item 101 -- Length:   44  Offset: 4032 (0x0fc0)  Flags: NORMAL
 Item 102 -- Length:   44  Offset: 3984 (0x0f90)  Flags: NORMAL
 Item 103 -- Length:   46  Offset: 3936 (0x0f60)  Flags: NORMAL
 Item 104 -- Length:   45  Offset: 3888 (0x0f30)  Flags: NORMAL
 Item 105 -- Length:   45  Offset: 3840 (0x0f00)  Flags: NORMAL
 Item 106 -- Length:   44  Offset: 3792 (0x0ed0)  Flags: NORMAL
 Item 107 -- Length:   46  Offset: 3744 (0x0ea0)  Flags: NORMAL
 Item 108 -- Length:   46  Offset: 3696 (0x0e70)  Flags: NORMAL
 Item 109 -- Length:   45  Offset: 3648 (0x0e40)  Flags: NORMAL
 Item 110 -- Length:   44  Offset: 3600 (0x0e10)  Flags: NORMAL
 Item 111 -- Length:   47  Offset: 3552 (0x0de0)  Flags: NORMAL
 Item 112 -- Length:   47  Offset: 3504 (0x0db0)  Flags: NORMAL
 Item 113 -- Length:   49  Offset: 3448 (0x0d78)  Flags: NORMAL
 Item 114 -- Length:   49  Offset: 3392 (0x0d40)  Flags: NORMAL
 Item 115 -- Length:   48  Offset: 3344 (0x0d10)  Flags: NORMAL
 Item 116 -- Length:   48  Offset: 3296 (0x0ce0)  Flags: NORMAL
 Item 117 -- Length:   50  Offset: 3240 (0x0ca8)  Flags: NORMAL
 Item 118 -- Length:   49  Offset: 3184 (0x0c70)  Flags: NORMAL
 Item 119 -- Length:   49  Offset: 3128 (0x0c38)  Flags: NORMAL
 Item 120 -- Length:   47  Offset: 3080 (0x0c08)  Flags: NORMAL
 Item 121 -- Length:   51  Offset: 3024 (0x0bd0)  Flags: NORMAL
 Item 122 -- Length:   51  Offset: 2968 (0x0b98)  Flags: NORMAL
 Item 123 -- Length:   53  Offset: 2912 (0x0b60)  Flags: NORMAL
 Item 124 -- Length:   52  Offset: 2856 (0x0b28)  Flags: NORMAL
 Item 125 -- Length:   52  Offset: 2800 (0x0af0)  Flags: NORMAL
 Item 126 -- Length:   51  Offset: 2744 (0x0ab8)  Flags: NORMAL
 Item 127 -- Length:   53  Offset: 2688 (0x0a80)  Flags: NORMAL
 Item 128 -- Length:   53  Offset: 2632 (0x0a48)  Flags: NORMAL
 Item 129 -- Length:   52  Offset: 2576 (0x0a10)  Flags: NORMAL
 Item 130 -- Length:   47  Offset: 2528 (0x09e0)  Flags: NORMAL
 Item 131 -- Length:   51  Offset: 2472 (0x09a8)  Flags: NORMAL
 Item 132 -- Length:   51  Offset: 2416 (0x0970)  Flags: NORMAL
 Item 133 -- Length:   53  Offset: 2360 (0x0938)  Flags: NORMAL
 Item 134 -- Length:   52  Offset: 2304 (0x0900)  Flags: NORMAL
 Item 135 -- Length:   52  Offset: 2248 (0x08c8)  Flags: NORMAL
 Item 136 -- Length:   51  Offset: 2192 (0x0890)  Flags: NORMAL
 Item 137 -- Length:   53  Offset: 2136 (0x0858)  Flags: NORMAL
 Item 138 -- Length:   53  Offset: 2080 (0x0820)  Flags: NORMAL
 Item 139 -- Length:   52  Offset: 2024 (0x07e8)  Flags: NORMAL
 Item 140 -- Length:   46  Offset: 1976 (0x07b8)  Flags: NORMAL
 Item 141 -- Length:   50  Offset: 1920 (0x0780)  Flags: NORMAL
 Item 142 -- Length:   50  Offset: 1864 (0x0748)  Flags: NORMAL
 Item 143 -- Length:   52  Offset: 1808 (0x0710)  Flags: NORMAL
 Item 144 -- Length:   51  Offset: 1752 (0x06d8)  Flags: NORMAL
 Item 145 -- Length:   51  Offset: 1696 (0x06a0)  Flags: NORMAL
 Item 146 -- Length:   50  Offset: 1640 (0x0668)  Flags: NORMAL
 Item 147 -- Length:   52  Offset: 1584 (0x0630)  Flags: NORMAL
 Item 148 -- Length:   52  Offset: 1528 (0x05f8)  Flags: NORMAL
 Item 149 -- Length:   51  Offset: 1472 (0x05c0)  Flags: NORMAL
 Item 150 -- Length:   46  Offset: 1424 (0x0590)  Flags: NORMAL
 Item 151 -- Length:   50  Offset: 1368 (0x0558)  Flags: NORMAL
 Item 152 -- Length:   50  Offset: 1312 (0x0520)  Flags: NORMAL
 Item 153 -- Length:   52  Offset: 1256 (0x04e8)  Flags: NORMAL
 Item 154 -- Length:   51  Offset: 1200 (0x04b0)  Flags: NORMAL
 Item 155 -- Length:   51  Offset: 1144 (0x0478)  Flags: NORMAL
 Item 156 -- Length:   50  Offset: 1088 (0x0440)  Flags: NORMAL
 Item 157 -- Length:   52  Offset: 1032 (0x0408)  Flags: NORMAL
 Item 158 -- Length:   52  Offset:  976 (0x03d0)  Flags: NORMAL
 Item 159 -- Length:   51  Offset:  920 (0x0398)  Flags: NORMAL
 Item 160 -- Length:   46  Offset:  872 (0x0368)  Flags: NORMAL
 Item 161 -- Length:   50  Offset:  816 (0x0330)  Flags: NORMAL
 Item 162 -- Length:   50  Offset:  760 (0x02f8)  Flags: NORMAL
 Item 163 -- Length:   52  Offset:  704 (0x02c0)  Flags: NORMAL


Block    1 ********************************************************
<Header> -----
 Block Offset: 0x00002000         Offsets: Lower     172 (0x00ac)
 Block: Size 8192  Version    4            Upper    6160 (0x1810)
 LSN:  logid      0 recoff 0x1311f8b8      Special  8192 (0x2000)
 Items:   37                      Free Space: 5988
 Checksum: 0x0000  Prune XID: 0x00000000  Flags: 0x0000 ()
 Length (including item array): 172

<Data> -----
 Item   1 -- Length:   51  Offset: 8136 (0x1fc8)  Flags: NORMAL
 Item   2 -- Length:   51  Offset: 8080 (0x1f90)  Flags: NORMAL
 Item   3 -- Length:   50  Offset: 8024 (0x1f58)  Flags: NORMAL
 Item   4 -- Length:   52  Offset: 7968 (0x1f20)  Flags: NORMAL
 Item   5 -- Length:   52  Offset: 7912 (0x1ee8)  Flags: NORMAL
 Item   6 -- Length:   51  Offset: 7856 (0x1eb0)  Flags: NORMAL
 Item   7 -- Length:   48  Offset: 7808 (0x1e80)  Flags: NORMAL
 Item   8 -- Length:   52  Offset: 7752 (0x1e48)  Flags: NORMAL
 Item   9 -- Length:   52  Offset: 7696 (0x1e10)  Flags: NORMAL
 Item  10 -- Length:   54  Offset: 7640 (0x1dd8)  Flags: NORMAL
 Item  11 -- Length:   53  Offset: 7584 (0x1da0)  Flags: NORMAL
 Item  12 -- Length:   53  Offset: 7528 (0x1d68)  Flags: NORMAL
 Item  13 -- Length:   52  Offset: 7472 (0x1d30)  Flags: NORMAL
 Item  14 -- Length:   54  Offset: 7416 (0x1cf8)  Flags: NORMAL
 Item  15 -- Length:   54  Offset: 7360 (0x1cc0)  Flags: NORMAL
 Item  16 -- Length:   53  Offset: 7304 (0x1c88)  Flags: NORMAL
 Item  17 -- Length:   47  Offset: 7256 (0x1c58)  Flags: NORMAL
 Item  18 -- Length:   51  Offset: 7200 (0x1c20)  Flags: NORMAL
 Item  19 -- Length:   51  Offset: 7144 (0x1be8)  Flags: NORMAL
 Item  20 -- Length:   53  Offset: 7088 (0x1bb0)  Flags: NORMAL
 Item  21 -- Length:   52  Offset: 7032 (0x1b78)  Flags: NORMAL
 Item  22 -- Length:   52  Offset: 6976 (0x1b40)  Flags: NORMAL
 Item  23 -- Length:   51  Offset: 6920 (0x1b08)  Flags: NORMAL
 Item  24 -- Length:   53  Offset: 6864 (0x1ad0)  Flags: NORMAL
 Item  25 -- Length:   53  Offset: 6808 (0x1a98)  Flags: NORMAL
 Item  26 -- Length:   52  Offset: 6752 (0x1a60)  Flags: NORMAL
 Item  27 -- Length:   47  Offset: 6704 (0x1a30)  Flags: NORMAL
 Item  28 -- Length:   51  Offset: 6648 (0x19f8)  Flags: NORMAL
 Item  29 -- Length:   51  Offset: 6592 (0x19c0)  Flags: NORMAL
 Item  30 -- Length:   53  Offset: 6536 (0x1988)  Flags: NORMAL
 Item  31 -- Length:   52  Offset: 6480 (0x1950)  Flags: NORMAL
 Item  32 -- Length:   52  Offset: 6424 (0x1918)  Flags: NORMAL
 Item  33 -- Length:   51  Offset: 6368 (0x18e0)  Flags: NORMAL
 Item  34 -- Length:   53  Offset: 6312 (0x18a8)  Flags: NORMAL
 Item  35 -- Length:   53  Offset: 6256 (0x1870)  Flags: NORMAL
 Item  36 -- Length:   52  Offset: 6200 (0x1838)  Flags: NORMAL
 Item  37 -- Length:   40  Offset: 6160 (0x1810)  Flags: NORMAL


*** End of File Encountered. Last Block Read: 1 ***
\! pg_filedump -d test/17726

*******************************************************************
* PostgreSQL File/Block Formatted Dump Utility
*
* File: test/17726
* Options used: -d
*******************************************************************

Block    0 ********************************************************
  0000: 00000000 28ec1113 00000000 a402c002  ....(...........
  0010: 00200420 00000000 e09f4000 c09f4000  . . ......@...@.
  0020: 989f4400 709f4200 489f4200 289f4000  ..D.p.B.H.B.(.@.
  0030: 009f4400 d89e4400 b09e4200 909e4000  ..D...D...B...@.
  0040: 689e4600 409e4600 189e4a00 f09d4a00  h.F.@.F...J...J.
  0050: c89d4800 a09d4800 789d4c00 509d4a00  ..H...H.x.L.P.J.
  0060: 289d4a00 009d4600 d89c4e00 b09c4e00  (.J...F...N...N.
  0070: 809c5200 589c5000 309c5000 089c4e00  ..R.X.P.0.P...N.
  0080: d89b5200 a89b5200 809b5000 589b4600  ..R...R...P.X.F.
  0090: 309b4e00 089b4e00 d89a5200 b09a5000  0.N...N...R...P.
  00a0: 889a5000 609a4e00 309a5200 009a5200  ..P.`.N.0.R...R.
  00b0: d8995000 b0994400 88994c00 60994c00  ..P...D...L.`.L.
  00c0: 38995000 10994e00 e8984e00 c0984c00  8.P...N...N...L.
  00d0: 98985000 70985000 48984e00 20984400  ..P.p.P.H.N. .D.
  00e0: f8974c00 d0974c00 a8975000 80974e00  ..L...L...P...N.
  00f0: 58974e00 30974c00 08975000 e0965000  X.N.0.L...P...P.
  0100: b8964e00 90964400 68964c00 40964c00  ..N...D.h.L.@.L.
  0110: 18965000 f0954e00 c8954e00 a0954c00  ..P...N...N...L.
  0120: 78955000 50955000 28954e00 00954800  x.P.P.P.(.N...H.
  0130: d8945000 b0945000 80945400 50945200  ..P...P...T.P.R.
  0140: 20945200 f8935000 c8935400 98935400   .R...P...T...T.
  0150: 68935200 40934600 18934e00 f0924e00  h.R.@.F...N...N.
  0160: c0925200 98925000 70925000 48924e00  ..R...P.p.P.H.N.
  0170: 18925200 e8915200 c0915000 98914600  ..R...R...P...F.
  0180: 70914e00 48914e00 18915200 f0905000  p.N.H.N...R...P.
  0190: c8905000 a0904e00 70905200 40905200  ..P...N.p.R.@.R.
  01a0: 18905000 f08f5000 c08f5800 908f5800  ..P...P...X...X.
  01b0: 608f5c00 308f5a00 008f5a00 d08e5800  `.\.0.Z...Z...X.
  01c0: a08e5c00 708e5c00 408e5a00 108e5800  ..\.p.\.@.Z...X.
  01d0: e08d5e00 b08d5e00 788d6200 408d6200  ..^...^.x.b.@.b.
  01e0: 108d6000 e08c6000 a88c6400 708c6200  ..`...`...d.p.b.
  01f0: 388c6200 088c5e00 d08b6600 988b6600  8.b...^...f...f.
  0200: 608b6a00 288b6800 f08a6800 b88a6600  `.j.(.h...h...f.
  0210: 808a6a00 488a6a00 108a6800 e0895e00  ..j.H.j...h...^.
  0220: a8896600 70896600 38896a00 00896800  ..f.p.f.8.j...h.
  0230: c8886800 90886600 58886a00 20886a00  ..h...f.X.j. .j.
  0240: e8876800 b8875c00 80876400 48876400  ..h...\...d.H.d.
  0250: 10876800 d8866600 a0866600 68866400  ..h...f...f.h.d.
  0260: 30866800 f8856800 c0856600 90855c00  0.h...h...f...\.
  0270: 58856400 20856400 e8846800 b0846600  X.d. .d...h...f.
  0280: 78846600 40846400 08846800 d0836800  x.f.@.d...h...h.
  0290: 98836600 68835c00 30836400 f8826400  ..f.h.\.0.d...d.
  02a0: c0826800 00000000 00000000 00000000  ..h.............
  02b0: 00000000 00000000 00000000 00000000  ................
  02c0: cf020000 00000000 00000000 00000000  ................
  02d0: a3000200 02091800 a3000000 316f6e65  ............1one
  02e0: 2068756e 64726564 20736978 74792d74   hundred sixty-t
  02f0: 68726565 00000000 cf020000 00000000  hree............
  0300: 00000000 00000000 a2000200 02091800  ................
  0310: a2000000 2d6f6e65 2068756e 64726564  ....-one hundred
  0320: 20736978 74792d74 776f0000 00000000   sixty-two......
  0330: cf020000 00000000 00000000 00000000  ................
  0340: a1000200 02091800 a1000000 2d6f6e65  ............-one
  0350: 2068756e 64726564 20736978 74792d6f   hundred sixty-o
  0360: 6e650000 00000000 cf020000 00000000  ne..............
  0370: 00000000 00000000 a0000200 02091800  ................
  0380: a0000000 256f6e65 2068756e 64726564  ....%one hundred
  0390: 20736978 74790000 cf020000 00000000   sixty..........
  03a0: 00000000 00000000 9f000200 02091800  ................
  03b0: 9f000000 2f6f6e65 2068756e 64726564  ..../one hundred
  03c0: 20666966 74792d6e 696e6500 00000000   fifty-nine.....
  03d0: cf020000 00000000 00000000 00000000  ................
  03e0: 9e000200 02091800 9e000000 316f6e65  ............1one
  03f0: 2068756e 64726564 20666966 74792d65   hundred fifty-e
  0400: 69676874 00000000 cf020000 00000000  ight............
  0410: 00000000 00000000 9d000200 02091800  ................
  0420: 9d000000 316f6e65 2068756e 64726564  ....1one hundred
  0430: 20666966 74792d73 6576656e 00000000   fifty-seven....
  0440: cf020000 00000000 00000000 00000000  ................
  0450: 9c000200 02091800 9c000000 2d6f6e65  ............-one
  0460: 2068756e 64726564 20666966 74792d73   hundred fifty-s
  0470: 69780000 00000000 cf020000 00000000  ix..............
  0480: 00000000 00000000 9b000200 02091800  ................
  0490: 9b000000 2f6f6e65 2068756e 64726564  ..../one hundred
  04a0: 20666966 74792d66 69766500 00000000   fifty-five.....
  04b0: cf020000 00000000 00000000 00000000  ................
  04c0: 9a000200 02091800 9a000000 2f6f6e65  ............/one
  04d0: 2068756e 64726564 20666966 74792d66   hundred fifty-f
  04e0: 6f757200 00000000 cf020000 00000000  our.............
  04f0: 00000000 00000000 99000200 02091800  ................
  0500: 99000000 316f6e65 2068756e 64726564  ....1one hundred
  0510: 20666966 74792d74 68726565 00000000   fifty-three....
  0520: cf020000 00000000 00000000 00000000  ................
  0530: 98000200 02091800 98000000 2d6f6e65  ............-one
  0540: 2068756e 64726564 20666966 74792d74   hundred fifty-t
  0550: 776f0000 00000000 cf020000 00000000  wo..............
  0560: 00000000 00000000 97000200 02091800  ................
  0570: 97000000 2d6f6e65 2068756e 64726564  ....-one hundred
  0580: 20666966 74792d6f 6e650000 00000000   fifty-one......
  0590: cf020000 00000000 00000000 00000000  ................
  05a0: 96000200 02091800 96000000 256f6e65  ............%one
  05b0: 2068756e 64726564 20666966 74790000   hundred fifty..
  05c0: cf020000 00000000 00000000 00000000  ................
  05d0: 95000200 02091800 95000000 2f6f6e65  ............/one
  05e0: 2068756e 64726564 20666f72 74792d6e   hundred forty-n
  05f0: 696e6500 00000000 cf020000 00000000  ine.............
  0600: 00000000 00000000 94000200 02091800  ................
  0610: 94000000 316f6e65 2068756e 64726564  ....1one hundred
  0620: 20666f72 74792d65 69676874 00000000   forty-eight....
  0630: cf020000 00000000 00000000 00000000  ................
  0640: 93000200 02091800 93000000 316f6e65  ............1one
  0650: 2068756e 64726564 20666f72 74792d73   hundred forty-s
  0660: 6576656e 00000000 cf020000 00000000  even............
  0670: 00000000 00000000 92000200 02091800  ................
  0680: 92000000 2d6f6e65 2068756e 64726564  ....-one hundred
  0690: 20666f72 74792d73 69780000 00000000   forty-six......
  06a0: cf020000 00000000 00000000 00000000  ................
  06b0: 91000200 02091800 91000000 2f6f6e65  ............/one
  06c0: 2068756e 64726564 20666f72 74792d66   hundred forty-f
  06d0: 69766500 00000000 cf020000 00000000  ive.............
  06e0: 00000000 00000000 90000200 02091800  ................
  06f0: 90000000 2f6f6e65 2068756e 64726564  ..../one hundred
  0700: 20666f72 74792d66 6f757200 00000000   forty-four.....
  0710: cf020000 00000000 00000000 00000000  ................
  0720: 8f000200 02091800 8f000000 316f6e65  ............1one
  0730: 2068756e 64726564 20666f72 74792d74   hundred forty-t
  0740: 68726565 00000000 cf020000 00000000  hree............
  0750: 00000000 00000000 8e000200 02091800  ................
  0760: 8e000000 2d6f6e65 2068756e 64726564  ....-one hundred
  0770: 20666f72 74792d74 776f0000 00000000   forty-two......
  0780: cf020000 00000000 00000000 00000000  ................
  0790: 8d000200 02091800 8d000000 2d6f6e65  ............-one
  07a0: 2068756e 64726564 20666f72 74792d6f   hundred forty-o
  07b0: 6e650000 00000000 cf020000 00000000  ne..............
  07c0: 00000000 00000000 8c000200 02091800  ................
  07d0: 8c000000 256f6e65 2068756e 64726564  ....%one hundred
  07e0: 20666f72 74790000 cf020000 00000000   forty..........
  07f0: 00000000 00000000 8b000200 02091800  ................
  0800: 8b000000 316f6e65 2068756e 64726564  ....1one hundred
  0810: 20746869 7274792d 6e696e65 00000000   thirty-nine....
  0820: cf020000 00000000 00000000 00000000  ................
  0830: 8a000200 02091800 8a000000 336f6e65  ............3one
  0840: 2068756e 64726564 20746869 7274792d   hundred thirty-
  0850: 65696768 74000000 cf020000 00000000  eight...........
  0860: 00000000 00000000 89000200 02091800  ................
  0870: 89000000 336f6e65 2068756e 64726564  ....3one hundred
  0880: 20746869 7274792d 73657665 6e000000   thirty-seven...
  0890: cf020000 00000000 00000000 00000000  ................
  08a0: 88000200 02091800 88000000 2f6f6e65  ............/one
  08b0: 2068756e 64726564 20746869 7274792d   hundred thirty-
  08c0: 73697800 00000000 cf020000 00000000  six.............
  08d0: 00000000 00000000 87000200 02091800  ................
  08e0: 87000000 316f6e65 2068756e 64726564  ....1one hundred
  08f0: 20746869 7274792d 66697665 00000000   thirty-five....
  0900: cf020000 00000000 00000000 00000000  ................
  0910: 86000200 02091800 86000000 316f6e65  ............1one
  0920: 2068756e 64726564 20746869 7274792d   hundred thirty-
  0930: 666f7572 00000000 cf020000 00000000  four............
  0940: 00000000 00000000 85000200 02091800  ................
  0950: 85000000 336f6e65 2068756e 64726564  ....3one hundred
  0960: 20746869 7274792d 74687265 65000000   thirty-three...
  0970: cf020000 00000000 00000000 00000000  ................
  0980: 84000200 02091800 84000000 2f6f6e65  ............/one
  0990: 2068756e 64726564 20746869 7274792d   hundred thirty-
  09a0: 74776f00 00000000 cf020000 00000000  two.............
  09b0: 00000000 00000000 83000200 02091800  ................
  09c0: 83000000 2f6f6e65 2068756e 64726564  ..../one hundred
  09d0: 20746869 7274792d 6f6e6500 00000000   thirty-one.....
  09e0: cf020000 00000000 00000000 00000000  ................
  09f0: 82000200 02091800 82000000 276f6e65  ............'one
  0a00: 2068756e 64726564 20746869 72747900   hundred thirty.
  0a10: cf020000 00000000 00000000 00000000  ................
  0a20: 81000200 02091800 81000000 316f6e65  ............1one
  0a30: 2068756e 64726564 20747765 6e74792d   hundred twenty-
  0a40: 6e696e65 00000000 cf020000 00000000  nine............
  0a50: 00000000 00000000 80000200 02091800  ................
  0a60: 80000000 336f6e65 2068756e 64726564  ....3one hundred
  0a70: 20747765 6e74792d 65696768 74000000   twenty-eight...
  0a80: cf020000 00000000 00000000 00000000  ................
  0a90: 7f000200 02091800 7f000000 336f6e65  ............3one
  0aa0: 2068756e 64726564 20747765 6e74792d   hundred twenty-
  0ab0: 73657665 6e000000 cf020000 00000000  seven...........
  0ac0: 00000000 00000000 7e000200 02091800  ........~.......
  0ad0: 7e000000 2f6f6e65 2068756e 64726564  ~.../one hundred
  0ae0: 20747765 6e74792d 73697800 00000000   twenty-six.....
  0af0: cf020000 00000000 00000000 00000000  ................
  0b00: 7d000200 02091800 7d000000 316f6e65  }.......}...1one
  0b10: 2068756e 64726564 20747765 6e74792d   hundred twenty-
  0b20: 66697665 00000000 cf020000 00000000  five............
  0b30: 00000000 00000000 7c000200 02091800  ........|.......
  0b40: 7c000000 316f6e65 2068756e 64726564  |...1one hundred
  0b50: 20747765 6e74792d 666f7572 00000000   twenty-four....
  0b60: cf020000 00000000 00000000 00000000  ................
  0b70: 7b000200 02091800 7b000000 336f6e65  {.......{...3one
  0b80: 2068756e 64726564 20747765 6e74792d   hundred twenty-
  0b90: 74687265 65000000 cf020000 00000000  three...........
  0ba0: 00000000 00000000 7a000200 02091800  ........z.......
  0bb0: 7a000000 2f6f6e65 2068756e 64726564  z.../one hundred
  0bc0: 20747765 6e74792d 74776f00 00000000   twenty-two.....
  0bd0: cf020000 00000000 00000000 00000000  ................
  0be0: 79000200 02091800 79000000 2f6f6e65  y.......y.../one
  0bf0: 2068756e 64726564 20747765 6e74792d   hundred twenty-
  0c00: 6f6e6500 00000000 cf020000 00000000  one.............
  0c10: 00000000 00000000 78000200 02091800  ........x.......
  0c20: 78000000 276f6e65 2068756e 64726564  x...'one hundred
  0c30: 20747765 6e747900 cf020000 00000000   twenty.........
  0c40: 00000000 00000000 77000200 02091800  ........w.......
  0c50: 77000000 2b6f6e65 2068756e 64726564  w...+one hundred
  0c60: 206e696e 65746565 6e000000 00000000   nineteen.......
  0c70: cf020000 00000000 00000000 00000000  ................
  0c80: 76000200 02091800 76000000 2b6f6e65  v.......v...+one
  0c90: 2068756e 64726564 20656967 68746565   hundred eightee
  0ca0: 6e000000 00000000 cf020000 00000000  n...............
  0cb0: 00000000 00000000 75000200 02091800  ........u.......
  0cc0: 75000000 2d6f6e65 2068756e 64726564  u...-one hundred
  0cd0: 20736576 656e7465 656e0000 00000000   seventeen......
  0ce0: cf020000 00000000 00000000 00000000  ................
  0cf0: 74000200 02091800 74000000 296f6e65  t.......t...)one
  0d00: 2068756e 64726564 20736978 7465656e   hundred sixteen
  0d10: cf020000 00000000 00000000 00000000  ................
  0d20: 73000200 02091800 73000000 296f6e65  s.......s...)one
  0d30: 2068756e 64726564 20666966 7465656e   hundred fifteen
  0d40: cf020000 00000000 00000000 00000000  ................
  0d50: 72000200 02091800 72000000 2b6f6e65  r.......r...+one
  0d60: 2068756e 64726564 20666f75 72746565   hundred fourtee
  0d70: 6e000000 00000000 cf020000 00000000  n...............
  0d80: 00000000 00000000 71000200 02091800  ........q.......
  0d90: 71000000 2b6f6e65 2068756e 64726564  q...+one hundred
  0da0: 20746869 72746565 6e000000 00000000   thirteen.......
  0db0: cf020000 00000000 00000000 00000000  ................
  0dc0: 70000200 02091800 70000000 276f6e65  p.......p...'one
  0dd0: 2068756e 64726564 20747765 6c766500   hundred twelve.
  0de0: cf020000 00000000 00000000 00000000  ................
  0df0: 6f000200 02091800 6f000000 276f6e65  o.......o...'one
  0e00: 2068756e 64726564 20656c65 76656e00   hundred eleven.
  0e10: cf020000 00000000 00000000 00000000  ................
  0e20: 6e000200 02091800 6e000000 216f6e65  n.......n...!one
  0e30: 2068756e 64726564 2074656e 00000000   hundred ten....
  0e40: cf020000 00000000 00000000 00000000  ................
  0e50: 6d000200 02091800 6d000000 236f6e65  m.......m...#one
  0e60: 2068756e 64726564 206e696e 65000000   hundred nine...
  0e70: cf020000 00000000 00000000 00000000  ................
  0e80: 6c000200 02091800 6c000000 256f6e65  l.......l...%one
  0e90: 2068756e 64726564 20656967 68740000   hundred eight..
  0ea0: cf020000 00000000 00000000 00000000  ................
  0eb0: 6b000200 02091800 6b000000 256f6e65  k.......k...%one
  0ec0: 2068756e 64726564 20736576 656e0000   hundred seven..
  0ed0: cf020000 00000000 00000000 00000000  ................
  0ee0: 6a000200 02091800 6a000000 216f6e65  j.......j...!one
  0ef0: 2068756e 64726564 20736978 00000000   hundred six....
  0f00: cf020000 00000000 00000000 00000000  ................
  0f10: 69000200 02091800 69000000 236f6e65  i.......i...#one
  0f20: 2068756e 64726564 20666976 65000000   hundred five...
  0f30: cf020000 00000000 00000000 00000000  ................
  0f40: 68000200 02091800 68000000 236f6e65  h.......h...#one
  0f50: 2068756e 64726564 20666f75 72000000   hundred four...
  0f60: cf020000 00000000 00000000 00000000  ................
  0f70: 67000200 02091800 67000000 256f6e65  g.......g...%one
  0f80: 2068756e 64726564 20746872 65650000   hundred three..
  0f90: cf020000 00000000 00000000 00000000  ................
  0fa0: 66000200 02091800 66000000 216f6e65  f.......f...!one
  0fb0: 2068756e 64726564 2074776f 00000000   hundred two....
  0fc0: cf020000 00000000 00000000 00000000  ................
  0fd0: 65000200 02091800 65000000 216f6e65  e.......e...!one
  0fe0: 2068756e 64726564 206f6e65 00000000   hundred one....
  0ff0: cf020000 00000000 00000000 00000000  ................
  1000: 64000200 02091800 64000000 196f6e65  d.......d....one
  1010: 2068756e 64726564 cf020000 00000000   hundred........
  1020: 00000000 00000000 63000200 02091800  ........c.......
  1030: 63000000 196e696e 6574792d 6e696e65  c....ninety-nine
  1040: cf020000 00000000 00000000 00000000  ................
  1050: 62000200 02091800 62000000 1b6e696e  b.......b....nin
  1060: 6574792d 65696768 74000000 00000000  ety-eight.......
  1070: cf020000 00000000 00000000 00000000  ................
  1080: 61000200 02091800 61000000 1b6e696e  a.......a....nin
  1090: 6574792d 73657665 6e000000 00000000  ety-seven.......
  10a0: cf020000 00000000 00000000 00000000  ................
  10b0: 60000200 02091800 60000000 176e696e  `.......`....nin
  10c0: 6574792d 73697800 cf020000 00000000  ety-six.........
  10d0: 00000000 00000000 5f000200 02091800  ........_.......
  10e0: 5f000000 196e696e 6574792d 66697665  _....ninety-five
  10f0: cf020000 00000000 00000000 00000000  ................
  1100: 5e000200 02091800 5e000000 196e696e  ^.......^....nin
  1110: 6574792d 666f7572 cf020000 00000000  ety-four........
  1120: 00000000 00000000 5d000200 02091800  ........].......
  1130: 5d000000 1b6e696e 6574792d 74687265  ]....ninety-thre
  1140: 65000000 00000000 cf020000 00000000  e...............
  1150: 00000000 00000000 5c000200 02091800  ........\.......
  1160: 5c000000 176e696e 6574792d 74776f00  \....ninety-two.
  1170: cf020000 00000000 00000000 00000000  ................
  1180: 5b000200 02091800 5b000000 176e696e  [.......[....nin
  1190: 6574792d 6f6e6500 cf020000 00000000  ety-one.........
  11a0: 00000000 00000000 5a000200 02091800  ........Z.......
  11b0: 5a000000 0f6e696e 65747900 00000000  Z....ninety.....
  11c0: cf020000 00000000 00000000 00000000  ................
  11d0: 59000200 02091800 59000000 19656967  Y.......Y....eig
  11e0: 6874792d 6e696e65 cf020000 00000000  hty-nine........
  11f0: 00000000 00000000 58000200 02091800  ........X.......
  1200: 58000000 1b656967 6874792d 65696768  X....eighty-eigh
  1210: 74000000 00000000 cf020000 00000000  t...............
  1220: 00000000 00000000 57000200 02091800  ........W.......
  1230: 57000000 1b656967 6874792d 73657665  W....eighty-seve
  1240: 6e000000 00000000 cf020000 00000000  n...............
  1250: 00000000 00000000 56000200 02091800  ........V.......
  1260: 56000000 17656967 6874792d 73697800  V....eighty-six.
  1270: cf020000 00000000 00000000 00000000  ................
  1280: 55000200 02091800 55000000 19656967  U.......U....eig
  1290: 6874792d 66697665 cf020000 00000000  hty-five........
  12a0: 00000000 00000000 54000200 02091800  ........T.......
  12b0: 54000000 19656967 6874792d 666f7572  T....eighty-four
  12c0: cf020000 00000000 00000000 00000000  ................
  12d0: 53000200 02091800 53000000 1b656967  S.......S....eig
  12e0: 6874792d 74687265 65000000 00000000  hty-three.......
  12f0: cf020000 00000000 00000000 00000000  ................
  1300: 52000200 02091800 52000000 17656967  R.......R....eig
  1310: 6874792d 74776f00 cf020000 00000000  hty-two.........
  1320: 00000000 00000000 51000200 02091800  ........Q.......
  1330: 51000000 17656967 6874792d 6f6e6500  Q....eighty-one.
  1340: cf020000 00000000 00000000 00000000  ................
  1350: 50000200 02091800 50000000 0f656967  P.......P....eig
  1360: 68747900 00000000 cf020000 00000000  hty.............
  1370: 00000000 00000000 4f000200 02091800  ........O.......
  1380: 4f000000 1b736576 656e7479 2d6e696e  O....seventy-nin
  1390: 65000000 00000000 cf020000 00000000  e...............
  13a0: 00000000 00000000 4e000200 02091800  ........N.......
  13b0: 4e000000 1d736576 656e7479 2d656967  N....seventy-eig
  13c0: 68740000 00000000 cf020000 00000000  ht..............
  13d0: 00000000 00000000 4d000200 02091800  ........M.......
  13e0: 4d000000 1d736576 656e7479 2d736576  M....seventy-sev
  13f0: 656e0000 00000000 cf020000 00000000  en..............
  1400: 00000000 00000000 4c000200 02091800  ........L.......
  1410: 4c000000 19736576 656e7479 2d736978  L....seventy-six
  1420: cf020000 00000000 00000000 00000000  ................
  1430: 4b000200 02091800 4b000000 1b736576  K.......K....sev
  1440: 656e7479 2d666976 65000000 00000000  enty-five.......
  1450: cf020000 00000000 00000000 00000000  ................
  1460: 4a000200 02091800 4a000000 1b736576  J.......J....sev
  1470: 656e7479 2d666f75 72000000 00000000  enty-four.......
  1480: cf020000 00000000 00000000 00000000  ................
  1490: 49000200 02091800 49000000 1d736576  I.......I....sev
  14a0: 656e7479 2d746872 65650000 00000000  enty-three......
  14b0: cf020000 00000000 00000000 00000000  ................
  14c0: 48000200 02091800 48000000 19736576  H.......H....sev
  14d0: 656e7479 2d74776f cf020000 00000000  enty-two........
  14e0: 00000000 00000000 47000200 02091800  ........G.......
  14f0: 47000000 19736576 656e7479 2d6f6e65  G....seventy-one
  1500: cf020000 00000000 00000000 00000000  ................
  1510: 46000200 02091800 46000000 11736576  F.......F....sev
  1520: 656e7479 00000000 cf020000 00000000  enty............
  1530: 00000000 00000000 45000200 02091800  ........E.......
  1540: 45000000 17736978 74792d6e 696e6500  E....sixty-nine.
  1550: cf020000 00000000 00000000 00000000  ................
  1560: 44000200 02091800 44000000 19736978  D.......D....six
  1570: 74792d65 69676874 cf020000 00000000  ty-eight........
  1580: 00000000 00000000 43000200 02091800  ........C.......
  1590: 43000000 19736978 74792d73 6576656e  C....sixty-seven
  15a0: cf020000 00000000 00000000 00000000  ................
  15b0: 42000200 02091800 42000000 15736978  B.......B....six
  15c0: 74792d73 69780000 cf020000 00000000  ty-six..........
  15d0: 00000000 00000000 41000200 02091800  ........A.......
  15e0: 41000000 17736978 74792d66 69766500  A....sixty-five.
  15f0: cf020000 00000000 00000000 00000000  ................
  1600: 40000200 02091800 40000000 17736978  @.......@....six
  1610: 74792d66 6f757200 cf020000 00000000  ty-four.........
  1620: 00000000 00000000 3f000200 02091800  ........?.......
  1630: 3f000000 19736978 74792d74 68726565  ?....sixty-three
  1640: cf020000 00000000 00000000 00000000  ................
  1650: 3e000200 02091800 3e000000 15736978  >.......>....six
  1660: 74792d74 776f0000 cf020000 00000000  ty-two..........
  1670: 00000000 00000000 3d000200 02091800  ........=.......
  1680: 3d000000 15736978 74792d6f 6e650000  =....sixty-one..
  1690: cf020000 00000000 00000000 00000000  ................
  16a0: 3c000200 02091800 3c000000 0d736978  <.......<....six
  16b0: 74790000 00000000 cf020000 00000000  ty..............
  16c0: 00000000 00000000 3b000200 02091800  ........;.......
  16d0: 3b000000 17666966 74792d6e 696e6500  ;....fifty-nine.
  16e0: cf020000 00000000 00000000 00000000  ................
  16f0: 3a000200 02091800 3a000000 19666966  :.......:....fif
  1700: 74792d65 69676874 cf020000 00000000  ty-eight........
  1710: 00000000 00000000 39000200 02091800  ........9.......
  1720: 39000000 19666966 74792d73 6576656e  9....fifty-seven
  1730: cf020000 00000000 00000000 00000000  ................
  1740: 38000200 02091800 38000000 15666966  8.......8....fif
  1750: 74792d73 69780000 cf020000 00000000  ty-six..........
  1760: 00000000 00000000 37000200 02091800  ........7.......
  1770: 37000000 17666966 74792d66 69766500  7....fifty-five.
  1780: cf020000 00000000 00000000 00000000  ................
  1790: 36000200 02091800 36000000 17666966  6.......6....fif
  17a0: 74792d66 6f757200 cf020000 00000000  ty-four.........
  17b0: 00000000 00000000 35000200 02091800  ........5.......
  17c0: 35000000 19666966 74792d74 68726565  5....fifty-three
  17d0: cf020000 00000000 00000000 00000000  ................
  17e0: 34000200 02091800 34000000 15666966  4.......4....fif
  17f0: 74792d74 776f0000 cf020000 00000000  ty-two..........
  1800: 00000000 00000000 33000200 02091800  ........3.......
  1810: 33000000 15666966 74792d6f 6e650000  3....fifty-one..
  1820: cf020000 00000000 00000000 00000000  ................
  1830: 32000200 02091800 32000000 0d666966  2.......2....fif
  1840: 74790000 00000000 cf020000 00000000  ty..............
  1850: 00000000 00000000 31000200 02091800  ........1.......
  1860: 31000000 17666f72 74792d6e 696e6500  1....forty-nine.
  1870: cf020000 00000000 00000000 00000000  ................
  1880: 30000200 02091800 30000000 19666f72  0.......0....for
  1890: 74792d65 69676874 cf020000 00000000  ty-eight........
  18a0: 00000000 00000000 2f000200 02091800  ......../.......
  18b0: 2f000000 19666f72 74792d73 6576656e  /....forty-seven
  18c0: cf020000 00000000 00000000 00000000  ................
  18d0: 2e000200 02091800 2e000000 15666f72  .............for
  18e0: 74792d73 69780000 cf020000 00000000  ty-six..........
  18f0: 00000000 00000000 2d000200 02091800  ........-.......
  1900: 2d000000 17666f72 74792d66 69766500  -....forty-five.
  1910: cf020000 00000000 00000000 00000000  ................
  1920: 2c000200 02091800 2c000000 17666f72  ,.......,....for
  1930: 74792d66 6f757200 cf020000 00000000  ty-four.........
  1940: 00000000 00000000 2b000200 02091800  ........+.......
  1950: 2b000000 19666f72 74792d74 68726565  +....forty-three
  1960: cf020000 00000000 00000000 00000000  ................
  1970: 2a000200 02091800 2a000000 15666f72  *.......*....for
  1980: 74792d74 776f0000 cf020000 00000000  ty-two..........
  1990: 00000000 00000000 29000200 02091800  ........).......
  19a0: 29000000 15666f72 74792d6f 6e650000  )....forty-one..
  19b0: cf020000 00000000 00000000 00000000  ................
  19c0: 28000200 02091800 28000000 0d666f72  (.......(....for
  19d0: 74790000 00000000 cf020000 00000000  ty..............
  19e0: 00000000 00000000 27000200 02091800  ........'.......
  19f0: 27000000 19746869 7274792d 6e696e65  '....thirty-nine
  1a00: cf020000 00000000 00000000 00000000  ................
  1a10: 26000200 02091800 26000000 1b746869  &.......&....thi
  1a20: 7274792d 65696768 74000000 00000000  rty-eight.......
  1a30: cf020000 00000000 00000000 00000000  ................
  1a40: 25000200 02091800 25000000 1b746869  %.......%....thi
  1a50: 7274792d 73657665 6e000000 00000000  rty-seven.......
  1a60: cf020000 00000000 00000000 00000000  ................
  1a70: 24000200 02091800 24000000 17746869  $.......$....thi
  1a80: 7274792d 73697800 cf020000 00000000  rty-six.........
  1a90: 00000000 00000000 23000200 02091800  ........#.......
  1aa0: 23000000 19746869 7274792d 66697665  #....thirty-five
  1ab0: cf020000 00000000 00000000 00000000  ................
  1ac0: 22000200 02091800 22000000 19746869  "......."....thi
  1ad0: 7274792d 666f7572 cf020000 00000000  rty-four........
  1ae0: 00000000 00000000 21000200 02091800  ........!.......
  1af0: 21000000 1b746869 7274792d 74687265  !....thirty-thre
  1b00: 65000000 00000000 cf020000 00000000  e...............
  1b10: 00000000 00000000 20000200 02091800  ........ .......
  1b20: 20000000 17746869 7274792d 74776f00   ....thirty-two.
  1b30: cf020000 00000000 00000000 00000000  ................
  1b40: 1f000200 02091800 1f000000 17746869  .............thi
  1b50: 7274792d 6f6e6500 cf020000 00000000  rty-one.........
  1b60: 00000000 00000000 1e000200 02091800  ................
  1b70: 1e000000 0f746869 72747900 00000000  .....thirty.....
  1b80: cf020000 00000000 00000000 00000000  ................
  1b90: 1d000200 02091800 1d000000 19747765  .............twe
  1ba0: 6e74792d 6e696e65 cf020000 00000000  nty-nine........
  1bb0: 00000000 00000000 1c000200 02091800  ................
  1bc0: 1c000000 1b747765 6e74792d 65696768  .....twenty-eigh
  1bd0: 74000000 00000000 cf020000 00000000  t...............
  1be0: 00000000 00000000 1b000200 02091800  ................
  1bf0: 1b000000 1b747765 6e74792d 73657665  .....twenty-seve
  1c00: 6e000000 00000000 cf020000 00000000  n...............
  1c10: 00000000 00000000 1a000200 02091800  ................
  1c20: 1a000000 17747765 6e74792d 73697800  .....twenty-six.
  1c30: cf020000 00000000 00000000 00000000  ................
  1c40: 19000200 02091800 19000000 19747765  .............twe
  1c50: 6e74792d 66697665 cf020000 00000000  nty-five........
  1c60: 00000000 00000000 18000200 02091800  ................
  1c70: 18000000 19747765 6e74792d 666f7572  .....twenty-four
  1c80: cf020000 00000000 00000000 00000000  ................
  1c90: 17000200 02091800 17000000 1b747765  .............twe
  1ca0: 6e74792d 74687265 65000000 00000000  nty-three.......
  1cb0: cf020000 00000000 00000000 00000000  ................
  1cc0: 16000200 02091800 16000000 17747765  .............twe
  1cd0: 6e74792d 74776f00 cf020000 00000000  nty-two.........
  1ce0: 00000000 00000000 15000200 02091800  ................
  1cf0: 15000000 17747765 6e74792d 6f6e6500  .....twenty-one.
  1d00: cf020000 00000000 00000000 00000000  ................
  1d10: 14000200 02091800 14000000 0f747765  .............twe
  1d20: 6e747900 00000000 cf020000 00000000  nty.............
  1d30: 00000000 00000000 13000200 02091800  ................
  1d40: 13000000 136e696e 65746565 6e000000  .....nineteen...
  1d50: cf020000 00000000 00000000 00000000  ................
  1d60: 12000200 02091800 12000000 13656967  .............eig
  1d70: 68746565 6e000000 cf020000 00000000  hteen...........
  1d80: 00000000 00000000 11000200 02091800  ................
  1d90: 11000000 15736576 656e7465 656e0000  .....seventeen..
  1da0: cf020000 00000000 00000000 00000000  ................
  1db0: 10000200 02091800 10000000 11736978  .............six
  1dc0: 7465656e 00000000 cf020000 00000000  teen............
  1dd0: 00000000 00000000 0f000200 02091800  ................
  1de0: 0f000000 11666966 7465656e 00000000  .....fifteen....
  1df0: cf020000 00000000 00000000 00000000  ................
  1e00: 0e000200 02091800 0e000000 13666f75  .............fou
  1e10: 72746565 6e000000 cf020000 00000000  rteen...........
  1e20: 00000000 00000000 0d000200 02091800  ................
  1e30: 0d000000 13746869 72746565 6e000000  .....thirteen...
  1e40: cf020000 00000000 00000000 00000000  ................
  1e50: 0c000200 02091800 0c000000 0f747765  .............twe
  1e60: 6c766500 00000000 cf020000 00000000  lve.............
  1e70: 00000000 00000000 0b000200 02091800  ................
  1e80: 0b000000 0f656c65 76656e00 00000000  .....eleven.....
  1e90: cf020000 00000000 00000000 00000000  ................
  1ea0: 0a000200 02091800 0a000000 0974656e  .............ten
  1eb0: cf020000 00000000 00000000 00000000  ................
  1ec0: 09000200 02091800 09000000 0b6e696e  .............nin
  1ed0: 65000000 00000000 cf020000 00000000  e...............
  1ee0: 00000000 00000000 08000200 02091800  ................
  1ef0: 08000000 0d656967 68740000 00000000  .....eight......
  1f00: cf020000 00000000 00000000 00000000  ................
  1f10: 07000200 02091800 07000000 0d736576  .............sev
  1f20: 656e0000 00000000 cf020000 00000000  en..............
  1f30: 00000000 00000000 06000200 02091800  ................
  1f40: 06000000 09736978 cf020000 00000000  .....six........
  1f50: 00000000 00000000 05000200 02091800  ................
  1f60: 05000000 0b666976 65000000 00000000  .....five.......
  1f70: cf020000 00000000 00000000 00000000  ................
  1f80: 04000200 02091800 04000000 0b666f75  .............fou
  1f90: 72000000 00000000 cf020000 00000000  r...............
  1fa0: 00000000 00000000 03000200 02091800  ................
  1fb0: 03000000 0d746872 65650000 00000000  .....three......
  1fc0: cf020000 00000000 00000000 00000000  ................
  1fd0: 02000200 02091800 02000000 0974776f  .............two
  1fe0: cf020000 00000000 00000000 00000000  ................
  1ff0: 01000200 02091800 01000000 096f6e65  .............one


Block    1 ********************************************************
  0000: 00000000 b8f81113 00000000 ac001018  ................
  0010: 00200420 00000000 c89f6600 909f6600  . . ......f...f.
  0020: 589f6400 209f6800 e89e6800 b09e6600  X.d. .h...h...f.
  0030: 809e6000 489e6800 109e6800 d89d6c00  ..`.H.h...h...l.
  0040: a09d6a00 689d6a00 309d6800 f89c6c00  ..j.h.j.0.h...l.
  0050: c09c6c00 889c6a00 589c5e00 209c6600  ..l...j.X.^. .f.
  0060: e89b6600 b09b6a00 789b6800 409b6800  ..f...j.x.h.@.h.
  0070: 089b6600 d09a6a00 989a6a00 609a6800  ..f...j...j.`.h.
  0080: 309a5e00 f8996600 c0996600 88996a00  0.^...f...f...j.
  0090: 50996800 18996800 e0986600 a8986a00  P.h...h...f...j.
  00a0: 70986a00 38986800 10985000 00000000  p.j.8.h...P.....
  00b0: 00000000 00000000 00000000 00000000  ................
  00c0: 00000000 00000000 00000000 00000000  ................
  00d0: 00000000 00000000 00000000 00000000  ................
  00e0: 00000000 00000000 00000000 00000000  ................
  00f0: 00000000 00000000 00000000 00000000  ................
  0100: 00000000 00000000 00000000 00000000  ................
  0110: 00000000 00000000 00000000 00000000  ................
  0120: 00000000 00000000 00000000 00000000  ................
  0130: 00000000 00000000 00000000 00000000  ................
  0140: 00000000 00000000 00000000 00000000  ................
  0150: 00000000 00000000 00000000 00000000  ................
  0160: 00000000 00000000 00000000 00000000  ................
  0170: 00000000 00000000 00000000 00000000  ................
  0180: 00000000 00000000 00000000 00000000  ................
  0190: 00000000 00000000 00000000 00000000  ................
  01a0: 00000000 00000000 00000000 00000000  ................
  01b0: 00000000 00000000 00000000 00000000  ................
  01c0: 00000000 00000000 00000000 00000000  ................
  01d0: 00000000 00000000 00000000 00000000  ................
  01e0: 00000000 00000000 00000000 00000000  ................
  01f0: 00000000 00000000 00000000 00000000  ................
  0200: 00000000 00000000 00000000 00000000  ................
  0210: 00000000 00000000 00000000 00000000  ................
  0220: 00000000 00000000 00000000 00000000  ................
  0230: 00000000 00000000 00000000 00000000  ................
  0240: 00000000 00000000 00000000 00000000  ................
  0250: 00000000 00000000 00000000 00000000  ................
  0260: 00000000 00000000 00000000 00000000  ................
  0270: 00000000 00000000 00000000 00000000  ................
  0280: 00000000 00000000 00000000 00000000  ................
  0290: 00000000 00000000 00000000 00000000  ................
  02a0: 00000000 00000000 00000000 00000000  ................
  02b0: 00000000 00000000 00000000 00000000  ................
  02c0: 00000000 00000000 00000000 00000000  ................
  02d0: 00000000 00000000 00000000 00000000  ................
  02e0: 00000000 00000000 00000000 00000000  ................
  02f0: 00000000 00000000 00000000 00000000  ................
  0300: 00000000 00000000 00000000 00000000  ................
  0310: 00000000 00000000 00000000 00000000  ................
  0320: 00000000 00000000 00000000 00000000  ................
  0330: 00000000 00000000 00000000 00000000  ................
  0340: 00000000 00000000 00000000 00000000  ................
  0350: 00000000 00000000 00000000 00000000  ................
  0360: 00000000 00000000 00000000 00000000  ................
  0370: 00000000 00000000 00000000 00000000  ................
  0380: 00000000 00000000 00000000 00000000  ................
  0390: 00000000 00000000 00000000 00000000  ................
  03a0: 00000000 00000000 00000000 00000000  ................
  03b0: 00000000 00000000 00000000 00000000  ................
  03c0: 00000000 00000000 00000000 00000000  ................
  03d0: 00000000 00000000 00000000 00000000  ................
  03e0: 00000000 00000000 00000000 00000000  ................
  03f0: 00000000 00000000 00000000 00000000  ................
  0400: 00000000 00000000 00000000 00000000  ................
  0410: 00000000 00000000 00000000 00000000  ................
  0420: 00000000 00000000 00000000 00000000  ................
  0430: 00000000 00000000 00000000 00000000  ................
  0440: 00000000 00000000 00000000 00000000  ................
  0450: 00000000 00000000 00000000 00000000  ................
  0460: 00000000 00000000 00000000 00000000  ................
  0470: 00000000 00000000 00000000 00000000  ................
  0480: 00000000 00000000 00000000 00000000  ................
  0490: 00000000 00000000 00000000 00000000  ................
  04a0: 00000000 00000000 00000000 00000000  ................
  04b0: 00000000 00000000 00000000 00000000  ................
  04c0: 00000000 00000000 00000000 00000000  ................
  04d0: 00000000 00000000 00000000 00000000  ................
  04e0: 00000000 00000000 00000000 00000000  ................
  04f0: 00000000 00000000 00000000 00000000  ................
  0500: 00000000 00000000 00000000 00000000  ................
  0510: 00000000 00000000 00000000 00000000  ................
  0520: 00000000 00000000 00000000 00000000  ................
  0530: 00000000 00000000 00000000 00000000  ................
  0540: 00000000 00000000 00000000 00000000  ................
  0550: 00000000 00000000 00000000 00000000  ................
  0560: 00000000 00000000 00000000 00000000  ................
  0570: 00000000 00000000 00000000 00000000  ................
  0580: 00000000 00000000 00000000 00000000  ................
  0590: 00000000 00000000 00000000 00000000  ................
  05a0: 00000000 00000000 00000000 00000000  ................
  05b0: 00000000 00000000 00000000 00000000  ................
  05c0: 00000000 00000000 00000000 00000000  ................
  05d0: 00000000 00000000 00000000 00000000  ................
  05e0: 00000000 00000000 00000000 00000000  ................
  05f0: 00000000 00000000 00000000 00000000  ................
  0600: 00000000 00000000 00000000 00000000  ................
  0610: 00000000 00000000 00000000 00000000  ................
  0620: 00000000 00000000 00000000 00000000  ................
  0630: 00000000 00000000 00000000 00000000  ................
  0640: 00000000 00000000 00000000 00000000  ................
  0650: 00000000 00000000 00000000 00000000  ................
  0660: 00000000 00000000 00000000 00000000  ................
  0670: 00000000 00000000 00000000 00000000  ................
  0680: 00000000 00000000 00000000 00000000  ................
  0690: 00000000 00000000 00000000 00000000  ................
  06a0: 00000000 00000000 00000000 00000000  ................
  06b0: 00000000 00000000 00000000 00000000  ................
  06c0: 00000000 00000000 00000000 00000000  ................
  06d0: 00000000 00000000 00000000 00000000  ................
  06e0: 00000000 00000000 00000000 00000000  ................
  06f0: 00000000 00000000 00000000 00000000  ................
  0700: 00000000 00000000 00000000 00000000  ................
  0710: 00000000 00000000 00000000 00000000  ................
  0720: 00000000 00000000 00000000 00000000  ................
  0730: 00000000 00000000 00000000 00000000  ................
  0740: 00000000 00000000 00000000 00000000  ................
  0750: 00000000 00000000 00000000 00000000  ................
  0760: 00000000 00000000 00000000 00000000  ................
  0770: 00000000 00000000 00000000 00000000  ................
  0780: 00000000 00000000 00000000 00000000  ................
  0790: 00000000 00000000 00000000 00000000  ................
  07a0: 00000000 00000000 00000000 00000000  ................
  07b0: 00000000 00000000 00000000 00000000  ................
  07c0: 00000000 00000000 00000000 00000000  ................
  07d0: 00000000 00000000 00000000 00000000  ................
  07e0: 00000000 00000000 00000000 00000000  ................
  07f0: 00000000 00000000 00000000 00000000  ................
  0800: 00000000 00000000 00000000 00000000  ................
  0810: 00000000 00000000 00000000 00000000  ................
  0820: 00000000 00000000 00000000 00000000  ................
  0830: 00000000 00000000 00000000 00000000  ................
  0840: 00000000 00000000 00000000 00000000  ................
  0850: 00000000 00000000 00000000 00000000  ................
  0860: 00000000 00000000 00000000 00000000  ................
  0870: 00000000 00000000 00000000 00000000  ................
  0880: 00000000 00000000 00000000 00000000  ................
  0890: 00000000 00000000 00000000 00000000  ................
  08a0: 00000000 00000000 00000000 00000000  ................
  08b0: 00000000 00000000 00000000 00000000  ................
  08c0: 00000000 00000000 00000000 00000000  ................
  08d0: 00000000 00000000 00000000 00000000  ................
  08e0: 00000000 00000000 00000000 00000000  ................
  08f0: 00000000 00000000 00000000 00000000  ................
  0900: 00000000 00000000 00000000 00000000  ................
  0910: 00000000 00000000 00000000 00000000  ................
  0920: 00000000 00000000 00000000 00000000  ................
  0930: 00000000 00000000 00000000 00000000  ................
  0940: 00000000 00000000 00000000 00000000  ................
  0950: 00000000 00000000 00000000 00000000  ................
  0960: 00000000 00000000 00000000 00000000  ................
  0970: 00000000 00000000 00000000 00000000  ................
  0980: 00000000 00000000 00000000 00000000  ................
  0990: 00000000 00000000 00000000 00000000  ................
  09a0: 00000000 00000000 00000000 00000000  ................
  09b0: 00000000 00000000 00000000 00000000  ................
  09c0: 00000000 00000000 00000000 00000000  ................
  09d0: 00000000 00000000 00000000 00000000  ................
  09e0: 00000000 00000000 00000000 00000000  ................
  09f0: 00000000 00000000 00000000 00000000  ................
  0a00: 00000000 00000000 00000000 00000000  ................
  0a10: 00000000 00000000 00000000 00000000  ................
  0a20: 00000000 00000000 00000000 00000000  ................
  0a30: 00000000 00000000 00000000 00000000  ................
  0a40: 00000000 00000000 00000000 00000000  ................
  0a50: 00000000 00000000 00000000 00000000  ................
  0a60: 00000000 00000000 00000000 00000000  ................
  0a70: 00000000 00000000 00000000 00000000  ................
  0a80: 00000000 00000000 00000000 00000000  ................
  0a90: 00000000 00000000 00000000 00000000  ................
  0aa0: 00000000 00000000 00000000 00000000  ................
  0ab0: 00000000 00000000 00000000 00000000  ................
  0ac0: 00000000 00000000 00000000 00000000  ................
  0ad0: 00000000 00000000 00000000 00000000  ................
  0ae0: 00000000 00000000 00000000 00000000  ................
  0af0: 00000000 00000000 00000000 00000000  ................
  0b00: 00000000 00000000 00000000 00000000  ................
  0b10: 00000000 00000000 00000000 00000000  ................
  0b20: 00000000 00000000 00000000 00000000  ................
  0b30: 00000000 00000000 00000000 00000000  ................
  0b40: 00000000 00000000 00000000 00000000  ................
  0b50: 00000000 00000000 00000000 00000000  ................
  0b60: 00000000 00000000 00000000 00000000  ................
  0b70: 00000000 00000000 00000000 00000000  ................
  0b80: 00000000 00000000 00000000 00000000  ................
  0b90: 00000000 00000000 00000000 00000000  ................
  0ba0: 00000000 00000000 00000000 00000000  ................
  0bb0: 00000000 00000000 00000000 00000000  ................
  0bc0: 00000000 00000000 00000000 00000000  ................
  0bd0: 00000000 00000000 00000000 00000000  ................
  0be0: 00000000 00000000 00000000 00000000  ................
  0bf0: 00000000 00000000 00000000 00000000  ................
  0c00: 00000000 00000000 00000000 00000000  ................
  0c10: 00000000 00000000 00000000 00000000  ................
  0c20: 00000000 00000000 00000000 00000000  ................
  0c30: 00000000 00000000 00000000 00000000  ................
  0c40: 00000000 00000000 00000000 00000000  ................
  0c50: 00000000 00000000 00000000 00000000  ................
  0c60: 00000000 00000000 00000000 00000000  ................
  0c70: 00000000 00000000 00000000 00000000  ................
  0c80: 00000000 00000000 00000000 00000000  ................
  0c90: 00000000 00000000 00000000 00000000  ................
  0ca0: 00000000 00000000 00000000 00000000  ................
  0cb0: 00000000 00000000 00000000 00000000  ................
  0cc0: 00000000 00000000 00000000 00000000  ................
  0cd0: 00000000 00000000 00000000 00000000  ................
  0ce0: 00000000 00000000 00000000 00000000  ................
  0cf0: 00000000 00000000 00000000 00000000  ................
  0d00: 00000000 00000000 00000000 00000000  ................
  0d10: 00000000 00000000 00000000 00000000  ................
  0d20: 00000000 00000000 00000000 00000000  ................
  0d30: 00000000 00000000 00000000 00000000  ................
  0d40: 00000000 00000000 00000000 00000000  ................
  0d50: 00000000 00000000 00000000 00000000  ................
  0d60: 00000000 00000000 00000000 00000000  ................
  0d70: 00000000 00000000 00000000 00000000  ................
  0d80: 00000000 00000000 00000000 00000000  ................
  0d90: 00000000 00000000 00000000 00000000  ................
  0da0: 00000000 00000000 00000000 00000000  ................
  0db0: 00000000 00000000 00000000 00000000  ................
  0dc0: 00000000 00000000 00000000 00000000  ................
  0dd0: 00000000 00000000 00000000 00000000  ................
  0de0: 00000000 00000000 00000000 00000000  ................
  0df0: 00000000 00000000 00000000 00000000  ................
  0e00: 00000000 00000000 00000000 00000000  ................
  0e10: 00000000 00000000 00000000 00000000  ................
  0e20: 00000000 00000000 00000000 00000000  ................
  0e30: 00000000 00000000 00000000 00000000  ................
  0e40: 00000000 00000000 00000000 00000000  ................
  0e50: 00000000 00000000 00000000 00000000  ................
  0e60: 00000000 00000000 00000000 00000000  ................
  0e70: 00000000 00000000 00000000 00000000  ................
  0e80: 00000000 00000000 00000000 00000000  ................
  0e90: 00000000 00000000 00000000 00000000  ................
  0ea0: 00000000 00000000 00000000 00000000  ................
  0eb0: 00000000 00000000 00000000 00000000  ................
  0ec0: 00000000 00000000 00000000 00000000  ................
  0ed0: 00000000 00000000 00000000 00000000  ................
  0ee0: 00000000 00000000 00000000 00000000  ................
  0ef0: 00000000 00000000 00000000 00000000  ................
  0f00: 00000000 00000000 00000000 00000000  ................
  0f10: 00000000 00000000 00000000 00000000  ................
  0f20: 00000000 00000000 00000000 00000000  ................
  0f30: 00000000 00000000 00000000 00000000  ................
  0f40: 00000000 00000000 00000000 00000000  ................
  0f50: 00000000 00000000 00000000 00000000  ................
  0f60: 00000000 00000000 00000000 00000000  ................
  0f70: 00000000 00000000 00000000 00000000  ................
  0f80: 00000000 00000000 00000000 00000000  ................
  0f90: 00000000 00000000 00000000 00000000  ................
  0fa0: 00000000 00000000 00000000 00000000  ................
  0fb0: 00000000 00000000 00000000 00000000  ................
  0fc0: 00000000 00000000 00000000 00000000  ................
  0fd0: 00000000 00000000 00000000 00000000  ................
  0fe0: 00000000 00000000 00000000 00000000  ................
  0ff0: 00000000 00000000 00000000 00000000  ................
  1000: 00000000 00000000 00000000 00000000  ................
  1010: 00000000 00000000 00000000 00000000  ................
  1020: 00000000 00000000 00000000 00000000  ................
  1030: 00000000 00000000 00000000 00000000  ................
  1040: 00000000 00000000 00000000 00000000  ................
  1050: 00000000 00000000 00000000 00000000  ................
  1060: 00000000 00000000 00000000 00000000  ................
  1070: 00000000 00000000 00000000 00000000  ................
  1080: 00000000 00000000 00000000 00000000  ................
  1090: 00000000 00000000 00000000 00000000  ................
  10a0: 00000000 00000000 00000000 00000000  ................
  10b0: 00000000 00000000 00000000 00000000  ................
  10c0: 00000000 00000000 00000000 00000000  ................
  10d0: 00000000 00000000 00000000 00000000  ................
  10e0: 00000000 00000000 00000000 00000000  ................
  10f0: 00000000 00000000 00000000 00000000  ................
  1100: 00000000 00000000 00000000 00000000  ................
  1110: 00000000 00000000 00000000 00000000  ................
  1120: 00000000 00000000 00000000 00000000  ................
  1130: 00000000 00000000 00000000 00000000  ................
  1140: 00000000 00000000 00000000 00000000  ................
  1150: 00000000 00000000 00000000 00000000  ................
  1160: 00000000 00000000 00000000 00000000  ................
  1170: 00000000 00000000 00000000 00000000  ................
  1180: 00000000 00000000 00000000 00000000  ................
  1190: 00000000 00000000 00000000 00000000  ................
  11a0: 00000000 00000000 00000000 00000000  ................
  11b0: 00000000 00000000 00000000 00000000  ................
  11c0: 00000000 00000000 00000000 00000000  ................
  11d0: 00000000 00000000 00000000 00000000  ................
  11e0: 00000000 00000000 00000000 00000000  ................
  11f0: 00000000 00000000 00000000 00000000  ................
  1200: 00000000 00000000 00000000 00000000  ................
  1210: 00000000 00000000 00000000 00000000  ................
  1220: 00000000 00000000 00000000 00000000  ................
  1230: 00000000 00000000 00000000 00000000  ................
  1240: 00000000 00000000 00000000 00000000  ................
  1250: 00000000 00000000 00000000 00000000  ................
  1260: 00000000 00000000 00000000 00000000  ................
  1270: 00000000 00000000 00000000 00000000  ................
  1280: 00000000 00000000 00000000 00000000  ................
  1290: 00000000 00000000 00000000 00000000  ................
  12a0: 00000000 00000000 00000000 00000000  ................
  12b0: 00000000 00000000 00000000 00000000  ................
  12c0: 00000000 00000000 00000000 00000000  ................
  12d0: 00000000 00000000 00000000 00000000  ................
  12e0: 00000000 00000000 00000000 00000000  ................
  12f0: 00000000 00000000 00000000 00000000  ................
  1300: 00000000 00000000 00000000 00000000  ................
  1310: 00000000 00000000 00000000 00000000  ................
  1320: 00000000 00000000 00000000 00000000  ................
  1330: 00000000 00000000 00000000 00000000  ................
  1340: 00000000 00000000 00000000 00000000  ................
  1350: 00000000 00000000 00000000 00000000  ................
  1360: 00000000 00000000 00000000 00000000  ................
  1370: 00000000 00000000 00000000 00000000  ................
  1380: 00000000 00000000 00000000 00000000  ................
  1390: 00000000 00000000 00000000 00000000  ................
  13a0: 00000000 00000000 00000000 00000000  ................
  13b0: 00000000 00000000 00000000 00000000  ................
  13c0: 00000000 00000000 00000000 00000000  ................
  13d0: 00000000 00000000 00000000 00000000  ................
  13e0: 00000000 00000000 00000000 00000000  ................
  13f0: 00000000 00000000 00000000 00000000  ................
  1400: 00000000 00000000 00000000 00000000  ................
  1410: 00000000 00000000 00000000 00000000  ................
  1420: 00000000 00000000 00000000 00000000  ................
  1430: 00000000 00000000 00000000 00000000  ................
  1440: 00000000 00000000 00000000 00000000  ................
  1450: 00000000 00000000 00000000 00000000  ................
  1460: 00000000 00000000 00000000 00000000  ................
  1470: 00000000 00000000 00000000 00000000  ................
  1480: 00000000 00000000 00000000 00000000  ................
  1490: 00000000 00000000 00000000 00000000  ................
  14a0: 00000000 00000000 00000000 00000000  ................
  14b0: 00000000 00000000 00000000 00000000  ................
  14c0: 00000000 00000000 00000000 00000000  ................
  14d0: 00000000 00000000 00000000 00000000  ................
  14e0: 00000000 00000000 00000000 00000000  ................
  14f0: 00000000 00000000 00000000 00000000  ................
  1500: 00000000 00000000 00000000 00000000  ................
  1510: 00000000 00000000 00000000 00000000  ................
  1520: 00000000 00000000 00000000 00000000  ................
  1530: 00000000 00000000 00000000 00000000  ................
  1540: 00000000 00000000 00000000 00000000  ................
  1550: 00000000 00000000 00000000 00000000  ................
  1560: 00000000 00000000 00000000 00000000  ................
  1570: 00000000 00000000 00000000 00000000  ................
  1580: 00000000 00000000 00000000 00000000  ................
  1590: 00000000 00000000 00000000 00000000  ................
  15a0: 00000000 00000000 00000000 00000000  ................
  15b0: 00000000 00000000 00000000 00000000  ................
  15c0: 00000000 00000000 00000000 00000000  ................
  15d0: 00000000 00000000 00000000 00000000  ................
  15e0: 00000000 00000000 00000000 00000000  ................
  15f0: 00000000 00000000 00000000 00000000  ................
  1600: 00000000 00000000 00000000 00000000  ................
  1610: 00000000 00000000 00000000 00000000  ................
  1620: 00000000 00000000 00000000 00000000  ................
  1630: 00000000 00000000 00000000 00000000  ................
  1640: 00000000 00000000 00000000 00000000  ................
  1650: 00000000 00000000 00000000 00000000  ................
  1660: 00000000 00000000 00000000 00000000  ................
  1670: 00000000 00000000 00000000 00000000  ................
  1680: 00000000 00000000 00000000 00000000  ................
  1690: 00000000 00000000 00000000 00000000  ................
  16a0: 00000000 00000000 00000000 00000000  ................
  16b0: 00000000 00000000 00000000 00000000  ................
  16c0: 00000000 00000000 00000000 00000000  ................
  16d0: 00000000 00000000 00000000 00000000  ................
  16e0: 00000000 00000000 00000000 00000000  ................
  16f0: 00000000 00000000 00000000 00000000  ................
  1700: 00000000 00000000 00000000 00000000  ................
  1710: 00000000 00000000 00000000 00000000  ................
  1720: 00000000 00000000 00000000 00000000  ................
  1730: 00000000 00000000 00000000 00000000  ................
  1740: 00000000 00000000 00000000 00000000  ................
  1750: 00000000 00000000 00000000 00000000  ................
  1760: 00000000 00000000 00000000 00000000  ................
  1770: 00000000 00000000 00000000 00000000  ................
  1780: 00000000 00000000 00000000 00000000  ................
  1790: 00000000 00000000 00000000 00000000  ................
  17a0: 00000000 00000000 00000000 00000000  ................
  17b0: 00000000 00000000 00000000 00000000  ................
  17c0: 00000000 00000000 00000000 00000000  ................
  17d0: 00000000 00000000 00000000 00000000  ................
  17e0: 00000000 00000000 00000000 00000000  ................
  17f0: 00000000 00000000 00000000 00000000  ................
  1800: 00000000 00000000 00000000 00000000  ................
  1810: cf020000 00000000 00000000 00000100  ................
  1820: 25000200 02091800 c8000000 1974776f  %............two
  1830: 2068756e 64726564 cf020000 00000000   hundred........
  1840: 00000000 00000100 24000200 02091800  ........$.......
  1850: c7000000 316f6e65 2068756e 64726564  ....1one hundred
  1860: 206e696e 6574792d 6e696e65 00000000   ninety-nine....
  1870: cf020000 00000000 00000000 00000100  ................
  1880: 23000200 02091800 c6000000 336f6e65  #...........3one
  1890: 2068756e 64726564 206e696e 6574792d   hundred ninety-
  18a0: 65696768 74000000 cf020000 00000000  eight...........
  18b0: 00000000 00000100 22000200 02091800  ........".......
  18c0: c5000000 336f6e65 2068756e 64726564  ....3one hundred
  18d0: 206e696e 6574792d 73657665 6e000000   ninety-seven...
  18e0: cf020000 00000000 00000000 00000100  ................
  18f0: 21000200 02091800 c4000000 2f6f6e65  !.........../one
  1900: 2068756e 64726564 206e696e 6574792d   hundred ninety-
  1910: 73697800 00000000 cf020000 00000000  six.............
  1920: 00000000 00000100 20000200 02091800  ........ .......
  1930: c3000000 316f6e65 2068756e 64726564  ....1one hundred
  1940: 206e696e 6574792d 66697665 00000000   ninety-five....
  1950: cf020000 00000000 00000000 00000100  ................
  1960: 1f000200 02091800 c2000000 316f6e65  ............1one
  1970: 2068756e 64726564 206e696e 6574792d   hundred ninety-
  1980: 666f7572 00000000 cf020000 00000000  four............
  1990: 00000000 00000100 1e000200 02091800  ................
  19a0: c1000000 336f6e65 2068756e 64726564  ....3one hundred
  19b0: 206e696e 6574792d 74687265 65000000   ninety-three...
  19c0: cf020000 00000000 00000000 00000100  ................
  19d0: 1d000200 02091800 c0000000 2f6f6e65  ............/one
  19e0: 2068756e 64726564 206e696e 6574792d   hundred ninety-
  19f0: 74776f00 00000000 cf020000 00000000  two.............
  1a00: 00000000 00000100 1c000200 02091800  ................
  1a10: bf000000 2f6f6e65 2068756e 64726564  ..../one hundred
  1a20: 206e696e 6574792d 6f6e6500 00000000   ninety-one.....
  1a30: cf020000 00000000 00000000 00000100  ................
  1a40: 1b000200 02091800 be000000 276f6e65  ............'one
  1a50: 2068756e 64726564 206e696e 65747900   hundred ninety.
  1a60: cf020000 00000000 00000000 00000100  ................
  1a70: 1a000200 02091800 bd000000 316f6e65  ............1one
  1a80: 2068756e 64726564 20656967 6874792d   hundred eighty-
  1a90: 6e696e65 00000000 cf020000 00000000  nine............
  1aa0: 00000000 00000100 19000200 02091800  ................
  1ab0: bc000000 336f6e65 2068756e 64726564  ....3one hundred
  1ac0: 20656967 6874792d 65696768 74000000   eighty-eight...
  1ad0: cf020000 00000000 00000000 00000100  ................
  1ae0: 18000200 02091800 bb000000 336f6e65  ............3one
  1af0: 2068756e 64726564 20656967 6874792d   hundred eighty-
  1b00: 73657665 6e000000 cf020000 00000000  seven...........
  1b10: 00000000 00000100 17000200 02091800  ................
  1b20: ba000000 2f6f6e65 2068756e 64726564  ..../one hundred
  1b30: 20656967 6874792d 73697800 00000000   eighty-six.....
  1b40: cf020000 00000000 00000000 00000100  ................
  1b50: 16000200 02091800 b9000000 316f6e65  ............1one
  1b60: 2068756e 64726564 20656967 6874792d   hundred eighty-
  1b70: 66697665 00000000 cf020000 00000000  five............
  1b80: 00000000 00000100 15000200 02091800  ................
  1b90: b8000000 316f6e65 2068756e 64726564  ....1one hundred
  1ba0: 20656967 6874792d 666f7572 00000000   eighty-four....
  1bb0: cf020000 00000000 00000000 00000100  ................
  1bc0: 14000200 02091800 b7000000 336f6e65  ............3one
  1bd0: 2068756e 64726564 20656967 6874792d   hundred eighty-
  1be0: 74687265 65000000 cf020000 00000000  three...........
  1bf0: 00000000 00000100 13000200 02091800  ................
  1c00: b6000000 2f6f6e65 2068756e 64726564  ..../one hundred
  1c10: 20656967 6874792d 74776f00 00000000   eighty-two.....
  1c20: cf020000 00000000 00000000 00000100  ................
  1c30: 12000200 02091800 b5000000 2f6f6e65  ............/one
  1c40: 2068756e 64726564 20656967 6874792d   hundred eighty-
  1c50: 6f6e6500 00000000 cf020000 00000000  one.............
  1c60: 00000000 00000100 11000200 02091800  ................
  1c70: b4000000 276f6e65 2068756e 64726564  ....'one hundred
  1c80: 20656967 68747900 cf020000 00000000   eighty.........
  1c90: 00000000 00000100 10000200 02091800  ................
  1ca0: b3000000 336f6e65 2068756e 64726564  ....3one hundred
  1cb0: 20736576 656e7479 2d6e696e 65000000   seventy-nine...
  1cc0: cf020000 00000000 00000000 00000100  ................
  1cd0: 0f000200 02091800 b2000000 356f6e65  ............5one
  1ce0: 2068756e 64726564 20736576 656e7479   hundred seventy
  1cf0: 2d656967 68740000 cf020000 00000000  -eight..........
  1d00: 00000000 00000100 0e000200 02091800  ................
  1d10: b1000000 356f6e65 2068756e 64726564  ....5one hundred
  1d20: 20736576 656e7479 2d736576 656e0000   seventy-seven..
  1d30: cf020000 00000000 00000000 00000100  ................
  1d40: 0d000200 02091800 b0000000 316f6e65  ............1one
  1d50: 2068756e 64726564 20736576 656e7479   hundred seventy
  1d60: 2d736978 00000000 cf020000 00000000  -six............
  1d70: 00000000 00000100 0c000200 02091800  ................
  1d80: af000000 336f6e65 2068756e 64726564  ....3one hundred
  1d90: 20736576 656e7479 2d666976 65000000   seventy-five...
  1da0: cf020000 00000000 00000000 00000100  ................
  1db0: 0b000200 02091800 ae000000 336f6e65  ............3one
  1dc0: 2068756e 64726564 20736576 656e7479   hundred seventy
  1dd0: 2d666f75 72000000 cf020000 00000000  -four...........
  1de0: 00000000 00000100 0a000200 02091800  ................
  1df0: ad000000 356f6e65 2068756e 64726564  ....5one hundred
  1e00: 20736576 656e7479 2d746872 65650000   seventy-three..
  1e10: cf020000 00000000 00000000 00000100  ................
  1e20: 09000200 02091800 ac000000 316f6e65  ............1one
  1e30: 2068756e 64726564 20736576 656e7479   hundred seventy
  1e40: 2d74776f 00000000 cf020000 00000000  -two............
  1e50: 00000000 00000100 08000200 02091800  ................
  1e60: ab000000 316f6e65 2068756e 64726564  ....1one hundred
  1e70: 20736576 656e7479 2d6f6e65 00000000   seventy-one....
  1e80: cf020000 00000000 00000000 00000100  ................
  1e90: 07000200 02091800 aa000000 296f6e65  ............)one
  1ea0: 2068756e 64726564 20736576 656e7479   hundred seventy
  1eb0: cf020000 00000000 00000000 00000100  ................
  1ec0: 06000200 02091800 a9000000 2f6f6e65  ............/one
  1ed0: 2068756e 64726564 20736978 74792d6e   hundred sixty-n
  1ee0: 696e6500 00000000 cf020000 00000000  ine.............
  1ef0: 00000000 00000100 05000200 02091800  ................
  1f00: a8000000 316f6e65 2068756e 64726564  ....1one hundred
  1f10: 20736978 74792d65 69676874 00000000   sixty-eight....
  1f20: cf020000 00000000 00000000 00000100  ................
  1f30: 04000200 02091800 a7000000 316f6e65  ............1one
  1f40: 2068756e 64726564 20736978 74792d73   hundred sixty-s
  1f50: 6576656e 00000000 cf020000 00000000  even............
  1f60: 00000000 00000100 03000200 02091800  ................
  1f70: a6000000 2d6f6e65 2068756e 64726564  ....-one hundred
  1f80: 20736978 74792d73 69780000 00000000   sixty-six......
  1f90: cf020000 00000000 00000000 00000100  ................
  1fa0: 02000200 02091800 a5000000 2f6f6e65  ............/one
  1fb0: 2068756e 64726564 20736978 74792d66   hundred sixty-f
  1fc0: 69766500 00000000 cf020000 00000000  ive.............
  1fd0: 00000000 00000100 01000200 02091800  ................
  1fe0: a4000000 2f6f6e65 2068756e 64726564  ..../one hundred
  1ff0: 20736978 74792d66 6f757200 00000000   sixty-four.....


*** End of File Encountered. Last Block Read: 1 ***
\! pg_filedump -D int,text test/17726

*******************************************************************
* PostgreSQL File/Block Formatted Dump Utility
*
* File: test/17726
* Options used: -D int,text
*******************************************************************

Block    0 ********************************************************
<Header> -----
 Block Offset: 0x00000000         Offsets: Lower     676 (0x02a4)
 Block: Size 8192  Version    4            Upper     704 (0x02c0)
 LSN:  logid      0 recoff 0x1311ec28      Special  8192 (0x2000)
 Items:  163                      Free Space:   28
 Checksum: 0x0000  Prune XID: 0x00000000  Flags: 0x0000 ()
 Length (including item array): 676

<Data> -----
 Item   1 -- Length:   32  Offset: 8160 (0x1fe0)  Flags: NORMAL
COPY: 1	one
 Item   2 -- Length:   32  Offset: 8128 (0x1fc0)  Flags: NORMAL
COPY: 2	two
 Item   3 -- Length:   34  Offset: 8088 (0x1f98)  Flags: NORMAL
COPY: 3	three
 Item   4 -- Length:   33  Offset: 8048 (0x1f70)  Flags: NORMAL
COPY: 4	four
 Item   5 -- Length:   33  Offset: 8008 (0x1f48)  Flags: NORMAL
COPY: 5	five
 Item   6 -- Length:   32  Offset: 7976 (0x1f28)  Flags: NORMAL
COPY: 6	six
 Item   7 -- Length:   34  Offset: 7936 (0x1f00)  Flags: NORMAL
COPY: 7	seven
 Item   8 -- Length:   34  Offset: 7896 (0x1ed8)  Flags: NORMAL
COPY: 8	eight
 Item   9 -- Length:   33  Offset: 7856 (0x1eb0)  Flags: NORMAL
COPY: 9	nine
 Item  10 -- Length:   32  Offset: 7824 (0x1e90)  Flags: NORMAL
COPY: 10	ten
 Item  11 -- Length:   35  Offset: 7784 (0x1e68)  Flags: NORMAL
COPY: 11	eleven
 Item  12 -- Length:   35  Offset: 7744 (0x1e40)  Flags: NORMAL
COPY: 12	twelve
 Item  13 -- Length:   37  Offset: 7704 (0x1e18)  Flags: NORMAL
COPY: 13	thirteen
 Item  14 -- Length:   37  Offset: 7664 (0x1df0)  Flags: NORMAL
COPY: 14	fourteen
 Item  15 -- Length:   36  Offset: 7624 (0x1dc8)  Flags: NORMAL
COPY: 15	fifteen
 Item  16 -- Length:   36  Offset: 7584 (0x1da0)  Flags: NORMAL
COPY: 16	sixteen
 Item  17 -- Length:   38  Offset: 7544 (0x1d78)  Flags: NORMAL
COPY: 17	seventeen
 Item  18 -- Length:   37  Offset: 7504 (0x1d50)  Flags: NORMAL
COPY: 18	eighteen
 Item  19 -- Length:   37  Offset: 7464 (0x1d28)  Flags: NORMAL
COPY: 19	nineteen
 Item  20 -- Length:   35  Offset: 7424 (0x1d00)  Flags: NORMAL
COPY: 20	twenty
 Item  21 -- Length:   39  Offset: 7384 (0x1cd8)  Flags: NORMAL
COPY: 21	twenty-one
 Item  22 -- Length:   39  Offset: 7344 (0x1cb0)  Flags: NORMAL
COPY: 22	twenty-two
 Item  23 -- Length:   41  Offset: 7296 (0x1c80)  Flags: NORMAL
COPY: 23	twenty-three
 Item  24 -- Length:   40  Offset: 7256 (0x1c58)  Flags: NORMAL
COPY: 24	twenty-four
 Item  25 -- Length:   40  Offset: 7216 (0x1c30)  Flags: NORMAL
COPY: 25	twenty-five
 Item  26 -- Length:   39  Offset: 7176 (0x1c08)  Flags: NORMAL
COPY: 26	twenty-six
 Item  27 -- Length:   41  Offset: 7128 (0x1bd8)  Flags: NORMAL
COPY: 27	twenty-seven
 Item  28 -- Length:   41  Offset: 7080 (0x1ba8)  Flags: NORMAL
COPY: 28	twenty-eight
 Item  29 -- Length:   40  Offset: 7040 (0x1b80)  Flags: NORMAL
COPY: 29	twenty-nine
 Item  30 -- Length:   35  Offset: 7000 (0x1b58)  Flags: NORMAL
COPY: 30	thirty
 Item  31 -- Length:   39  Offset: 6960 (0x1b30)  Flags: NORMAL
COPY: 31	thirty-one
 Item  32 -- Length:   39  Offset: 6920 (0x1b08)  Flags: NORMAL
COPY: 32	thirty-two
 Item  33 -- Length:   41  Offset: 6872 (0x1ad8)  Flags: NORMAL
COPY: 33	thirty-three
 Item  34 -- Length:   40  Offset: 6832 (0x1ab0)  Flags: NORMAL
COPY: 34	thirty-four
 Item  35 -- Length:   40  Offset: 6792 (0x1a88)  Flags: NORMAL
COPY: 35	thirty-five
 Item  36 -- Length:   39  Offset: 6752 (0x1a60)  Flags: NORMAL
COPY: 36	thirty-six
 Item  37 -- Length:   41  Offset: 6704 (0x1a30)  Flags: NORMAL
COPY: 37	thirty-seven
 Item  38 -- Length:   41  Offset: 6656 (0x1a00)  Flags: NORMAL
COPY: 38	thirty-eight
 Item  39 -- Length:   40  Offset: 6616 (0x19d8)  Flags: NORMAL
COPY: 39	thirty-nine
 Item  40 -- Length:   34  Offset: 6576 (0x19b0)  Flags: NORMAL
COPY: 40	forty
 Item  41 -- Length:   38  Offset: 6536 (0x1988)  Flags: NORMAL
COPY: 41	forty-one
 Item  42 -- Length:   38  Offset: 6496 (0x1960)  Flags: NORMAL
COPY: 42	forty-two
 Item  43 -- Length:   40  Offset: 6456 (0x1938)  Flags: NORMAL
COPY: 43	forty-three
 Item  44 -- Length:   39  Offset: 6416 (0x1910)  Flags: NORMAL
COPY: 44	forty-four
 Item  45 -- Length:   39  Offset: 6376 (0x18e8)  Flags: NORMAL
COPY: 45	forty-five
 Item  46 -- Length:   38  Offset: 6336 (0x18c0)  Flags: NORMAL
COPY: 46	forty-six
 Item  47 -- Length:   40  Offset: 6296 (0x1898)  Flags: NORMAL
COPY: 47	forty-seven
 Item  48 -- Length:   40  Offset: 6256 (0x1870)  Flags: NORMAL
COPY: 48	forty-eight
 Item  49 -- Length:   39  Offset: 6216 (0x1848)  Flags: NORMAL
COPY: 49	forty-nine
 Item  50 -- Length:   34  Offset: 6176 (0x1820)  Flags: NORMAL
COPY: 50	fifty
 Item  51 -- Length:   38  Offset: 6136 (0x17f8)  Flags: NORMAL
COPY: 51	fifty-one
 Item  52 -- Length:   38  Offset: 6096 (0x17d0)  Flags: NORMAL
COPY: 52	fifty-two
 Item  53 -- Length:   40  Offset: 6056 (0x17a8)  Flags: NORMAL
COPY: 53	fifty-three
 Item  54 -- Length:   39  Offset: 6016 (0x1780)  Flags: NORMAL
COPY: 54	fifty-four
 Item  55 -- Length:   39  Offset: 5976 (0x1758)  Flags: NORMAL
COPY: 55	fifty-five
 Item  56 -- Length:   38  Offset: 5936 (0x1730)  Flags: NORMAL
COPY: 56	fifty-six
 Item  57 -- Length:   40  Offset: 5896 (0x1708)  Flags: NORMAL
COPY: 57	fifty-seven
 Item  58 -- Length:   40  Offset: 5856 (0x16e0)  Flags: NORMAL
COPY: 58	fifty-eight
 Item  59 -- Length:   39  Offset: 5816 (0x16b8)  Flags: NORMAL
COPY: 59	fifty-nine
 Item  60 -- Length:   34  Offset: 5776 (0x1690)  Flags: NORMAL
COPY: 60	sixty
 Item  61 -- Length:   38  Offset: 5736 (0x1668)  Flags: NORMAL
COPY: 61	sixty-one
 Item  62 -- Length:   38  Offset: 5696 (0x1640)  Flags: NORMAL
COPY: 62	sixty-two
 Item  63 -- Length:   40  Offset: 5656 (0x1618)  Flags: NORMAL
COPY: 63	sixty-three
 Item  64 -- Length:   39  Offset: 5616 (0x15f0)  Flags: NORMAL
COPY: 64	sixty-four
 Item  65 -- Length:   39  Offset: 5576 (0x15c8)  Flags: NORMAL
COPY: 65	sixty-five
 Item  66 -- Length:   38  Offset: 5536 (0x15a0)  Flags: NORMAL
COPY: 66	sixty-six
 Item  67 -- Length:   40  Offset: 5496 (0x1578)  Flags: NORMAL
COPY: 67	sixty-seven
 Item  68 -- Length:   40  Offset: 5456 (0x1550)  Flags: NORMAL
COPY: 68	sixty-eight
 Item  69 -- Length:   39  Offset: 5416 (0x1528)  Flags: NORMAL
COPY: 69	sixty-nine
 Item  70 -- Length:   36  Offset: 5376 (0x1500)  Flags: NORMAL
COPY: 70	seventy
 Item  71 -- Length:   40  Offset: 5336 (0x14d8)  Flags: NORMAL
COPY: 71	seventy-one
 Item  72 -- Length:   40  Offset: 5296 (0x14b0)  Flags: NORMAL
COPY: 72	seventy-two
 Item  73 -- Length:   42  Offset: 5248 (0x1480)  Flags: NORMAL
COPY: 73	seventy-three
 Item  74 -- Length:   41  Offset: 5200 (0x1450)  Flags: NORMAL
COPY: 74	seventy-four
 Item  75 -- Length:   41  Offset: 5152 (0x1420)  Flags: NORMAL
COPY: 75	seventy-five
 Item  76 -- Length:   40  Offset: 5112 (0x13f8)  Flags: NORMAL
COPY: 76	seventy-six
 Item  77 -- Length:   42  Offset: 5064 (0x13c8)  Flags: NORMAL
COPY: 77	seventy-seven
 Item  78 -- Length:   42  Offset: 5016 (0x1398)  Flags: NORMAL
COPY: 78	seventy-eight
 Item  79 -- Length:   41  Offset: 4968 (0x1368)  Flags: NORMAL
COPY: 79	seventy-nine
 Item  80 -- Length:   35  Offset: 4928 (0x1340)  Flags: NORMAL
COPY: 80	eighty
 Item  81 -- Length:   39  Offset: 4888 (0x1318)  Flags: NORMAL
COPY: 81	eighty-one
 Item  82 -- Length:   39  Offset: 4848 (0x12f0)  Flags: NORMAL
COPY: 82	eighty-two
 Item  83 -- Length:   41  Offset: 4800 (0x12c0)  Flags: NORMAL
COPY: 83	eighty-three
 Item  84 -- Length:   40  Offset: 4760 (0x1298)  Flags: NORMAL
COPY: 84	eighty-four
 Item  85 -- Length:   40  Offset: 4720 (0x1270)  Flags: NORMAL
COPY: 85	eighty-five
 Item  86 -- Length:   39  Offset: 4680 (0x1248)  Flags: NORMAL
COPY: 86	eighty-six
 Item  87 -- Length:   41  Offset: 4632 (0x1218)  Flags: NORMAL
COPY: 87	eighty-seven
 Item  88 -- Length:   41  Offset: 4584 (0x11e8)  Flags: NORMAL
COPY: 88	eighty-eight
 Item  89 -- Length:   40  Offset: 4544 (0x11c0)  Flags: NORMAL
COPY: 89	eighty-nine
 Item  90 -- Length:   35  Offset: 4504 (0x1198)  Flags: NORMAL
COPY: 90	ninety
 Item  91 -- Length:   39  Offset: 4464 (0x1170)  Flags: NORMAL
COPY: 91	ninety-one
 Item  92 -- Length:   39  Offset: 4424 (0x1148)  Flags: NORMAL
COPY: 92	ninety-two
 Item  93 -- Length:   41  Offset: 4376 (0x1118)  Flags: NORMAL
COPY: 93	ninety-three
 Item  94 -- Length:   40  Offset: 4336 (0x10f0)  Flags: NORMAL
COPY: 94	ninety-four
 Item  95 -- Length:   40  Offset: 4296 (0x10c8)  Flags: NORMAL
COPY: 95	ninety-five
 Item  96 -- Length:   39  Offset: 4256 (0x10a0)  Flags: NORMAL
COPY: 96	ninety-six
 Item  97 -- Length:   41  Offset: 4208 (0x1070)  Flags: NORMAL
COPY: 97	ninety-seven
 Item  98 -- Length:   41  Offset: 4160 (0x1040)  Flags: NORMAL
COPY: 98	ninety-eight
 Item  99 -- Length:   40  Offset: 4120 (0x1018)  Flags: NORMAL
COPY: 99	ninety-nine
 Item 100 -- Length:   40  Offset: 4080 (0x0ff0)  Flags: NORMAL
COPY: 100	one hundred
 Item 101 -- Length:   44  Offset: 4032 (0x0fc0)  Flags: NORMAL
COPY: 101	one hundred one
 Item 102 -- Length:   44  Offset: 3984 (0x0f90)  Flags: NORMAL
COPY: 102	one hundred two
 Item 103 -- Length:   46  Offset: 3936 (0x0f60)  Flags: NORMAL
COPY: 103	one hundred three
 Item 104 -- Length:   45  Offset: 3888 (0x0f30)  Flags: NORMAL
COPY: 104	one hundred four
 Item 105 -- Length:   45  Offset: 3840 (0x0f00)  Flags: NORMAL
COPY: 105	one hundred five
 Item 106 -- Length:   44  Offset: 3792 (0x0ed0)  Flags: NORMAL
COPY: 106	one hundred six
 Item 107 -- Length:   46  Offset: 3744 (0x0ea0)  Flags: NORMAL
COPY: 107	one hundred seven
 Item 108 -- Length:   46  Offset: 3696 (0x0e70)  Flags: NORMAL
COPY: 108	one hundred eight
 Item 109 -- Length:   45  Offset: 3648 (0x0e40)  Flags: NORMAL
COPY: 109	one hundred nine
 Item 110 -- Length:   44  Offset: 3600 (0x0e10)  Flags: NORMAL
COPY: 110	one hundred ten
 Item 111 -- Length:   47  Offset: 3552 (0x0de0)  Flags: NORMAL
COPY: 111	one hundred eleven
 Item 112 -- Length:   47  Offset: 3504 (0x0db0)  Flags: NORMAL
COPY: 112	one hundred twelve
 Item 113 -- Length:   49  Offset: 3448 (0x0d78)  Flags: NORMAL
COPY: 113	one hundred thirteen
 Item 114 -- Length:   49  Offset: 3392 (0x0d40)  Flags: NORMAL
COPY: 114	one hundred fourteen
 Item 115 -- Length:   48  Offset: 3344 (0x0d10)  Flags: NORMAL
COPY: 115	one hundred fifteen
 Item 116 -- Length:   48  Offset: 3296 (0x0ce0)  Flags: NORMAL
COPY: 116	one hundred sixteen
 Item 117 -- Length:   50  Offset: 3240 (0x0ca8)  Flags: NORMAL
COPY: 117	one hundred seventeen
 Item 118 -- Length:   49  Offset: 3184 (0x0c70)  Flags: NORMAL
COPY: 118	one hundred eighteen
 Item 119 -- Length:   49  Offset: 3128 (0x0c38)  Flags: NORMAL
COPY: 119	one hundred nineteen
 Item 120 -- Length:   47  Offset: 3080 (0x0c08)  Flags: NORMAL
COPY: 120	one hundred twenty
 Item 121 -- Length:   51  Offset: 3024 (0x0bd0)  Flags: NORMAL
COPY: 121	one hundred twenty-one
 Item 122 -- Length:   51  Offset: 2968 (0x0b98)  Flags: NORMAL
COPY: 122	one hundred twenty-two
 Item 123 -- Length:   53  Offset: 2912 (0x0b60)  Flags: NORMAL
COPY: 123	one hundred twenty-three
 Item 124 -- Length:   52  Offset: 2856 (0x0b28)  Flags: NORMAL
COPY: 124	one hundred twenty-four
 Item 125 -- Length:   52  Offset: 2800 (0x0af0)  Flags: NORMAL
COPY: 125	one hundred twenty-five
 Item 126 -- Length:   51  Offset: 2744 (0x0ab8)  Flags: NORMAL
COPY: 126	one hundred twenty-six
 Item 127 -- Length:   53  Offset: 2688 (0x0a80)  Flags: NORMAL
COPY: 127	one hundred twenty-seven
 Item 128 -- Length:   53  Offset: 2632 (0x0a48)  Flags: NORMAL
COPY: 128	one hundred twenty-eight
 Item 129 -- Length:   52  Offset: 2576 (0x0a10)  Flags: NORMAL
COPY: 129	one hundred twenty-nine
 Item 130 -- Length:   47  Offset: 2528 (0x09e0)  Flags: NORMAL
COPY: 130	one hundred thirty
 Item 131 -- Length:   51  Offset: 2472 (0x09a8)  Flags: NORMAL
COPY: 131	one hundred thirty-one
 Item 132 -- Length:   51  Offset: 2416 (0x0970)  Flags: NORMAL
COPY: 132	one hundred thirty-two
 Item 133 -- Length:   53  Offset: 2360 (0x0938)  Flags: NORMAL
COPY: 133	one hundred thirty-three
 Item 134 -- Length:   52  Offset: 2304 (0x0900)  Flags: NORMAL
COPY: 134	one hundred thirty-four
 Item 135 -- Length:   52  Offset: 2248 (0x08c8)  Flags: NORMAL
COPY: 135	one hundred thirty-five
 Item 136 -- Length:   51  Offset: 2192 (0x0890)  Flags: NORMAL
COPY: 136	one hundred thirty-six
 Item 137 -- Length:   53  Offset: 2136 (0x0858)  Flags: NORMAL
COPY: 137	one hundred thirty-seven
 Item 138 -- Length:   53  Offset: 2080 (0x0820)  Flags: NORMAL
COPY: 138	one hundred thirty-eight
 Item 139 -- Length:   52  Offset: 2024 (0x07e8)  Flags: NORMAL
COPY: 139	one hundred thirty-nine
 Item 140 -- Length:   46  Offset: 1976 (0x07b8)  Flags: NORMAL
COPY: 140	one hundred forty
 Item 141 -- Length:   50  Offset: 1920 (0x0780)  Flags: NORMAL
COPY: 141	one hundred forty-one
 Item 142 -- Length:   50  Offset: 1864 (0x0748)  Flags: NORMAL
COPY: 142	one hundred forty-two
 Item 143 -- Length:   52  Offset: 1808 (0x0710)  Flags: NORMAL
COPY: 143	one hundred forty-three
 Item 144 -- Length:   51  Offset: 1752 (0x06d8)  Flags: NORMAL
COPY: 144	one hundred forty-four
 Item 145 -- Length:   51  Offset: 1696 (0x06a0)  Flags: NORMAL
COPY: 145	one hundred forty-five
 Item 146 -- Length:   50  Offset: 1640 (0x0668)  Flags: NORMAL
COPY: 146	one hundred forty-six
 Item 147 -- Length:   52  Offset: 1584 (0x0630)  Flags: NORMAL
COPY: 147	one hundred forty-seven
 Item 148 -- Length:   52  Offset: 1528 (0x05f8)  Flags: NORMAL
COPY: 148	one hundred forty-eight
 Item 149 -- Length:   51  Offset: 1472 (0x05c0)  Flags: NORMAL
COPY: 149	one hundred forty-nine
 Item 150 -- Length:   46  Offset: 1424 (0x0590)  Flags: NORMAL
COPY: 150	one hundred fifty
 Item 151 -- Length:   50  Offset: 1368 (0x0558)  Flags: NORMAL
COPY: 151	one hundred fifty-one
 Item 152 -- Length:   50  Offset: 1312 (0x0520)  Flags: NORMAL
COPY: 152	one hundred fifty-two
 Item 153 -- Length:   52  Offset: 1256 (0x04e8)  Flags: NORMAL
COPY: 153	one hundred fifty-three
 Item 154 -- Length:   51  Offset: 1200 (0x04b0)  Flags: NORMAL
COPY: 154	one hundred fifty-four
 Item 155 -- Length:   51  Offset: 1144 (0x0478)  Flags: NORMAL
COPY: 155	one hundred fifty-five
 Item 156 -- Length:   50  Offset: 1088 (0x0440)  Flags: NORMAL
COPY: 156	one hundred fifty-six
 Item 157 -- Length:   52  Offset: 1032 (0x0408)  Flags: NORMAL
COPY: 157	one hundred fifty-seven
 Item 158 -- Length:   52  Offset:  976 (0x03d0)  Flags: NORMAL
COPY: 158	one hundred fifty-eight
 Item 159 -- Length:   51  Offset:  920 (0x0398)  Flags: NORMAL
COPY: 159	one hundred fifty-nine
 Item 160 -- Length:   46  Offset:  872 (0x0368)  Flags: NORMAL
COPY: 160	one hundred sixty
 Item 161 -- Length:   50  Offset:  816 (0x0330)  Flags: NORMAL
COPY: 161	one hundred sixty-one
 Item 162 -- Length:   50  Offset:  760 (0x02f8)  Flags: NORMAL
COPY: 162	one hundred sixty-two
 Item 163 -- Length:   52  Offset:  704 (0x02c0)  Flags: NORMAL
COPY: 163	one hundred sixty-three


Block    1 ********************************************************
<Header> -----
 Block Offset: 0x00002000         Offsets: Lower     172 (0x00ac)
 Block: Size 8192  Version    4            Upper    6160 (0x1810)
 LSN:  logid      0 recoff 0x1311f8b8      Special  8192 (0x2000)
 Items:   37                      Free Space: 5988
 Checksum: 0x0000  Prune XID: 0x00000000  Flags: 0x0000 ()
 Length (including item array): 172

<Data> -----
 Item   1 -- Length:   51  Offset: 8136 (0x1fc8)  Flags: NORMAL
COPY: 164	one hundred sixty-four
 Item   2 -- Length:   51  Offset: 8080 (0x1f90)  Flags: NORMAL
COPY: 165	one hundred sixty-five
 Item   3 -- Length:   50  Offset: 8024 (0x1f58)  Flags: NORMAL
COPY: 166	one hundred sixty-six
 Item   4 -- Length:   52  Offset: 7968 (0x1f20)  Flags: NORMAL
COPY: 167	one hundred sixty-seven
 Item   5 -- Length:   52  Offset: 7912 (0x1ee8)  Flags: NORMAL
COPY: 168	one hundred sixty-eight
 Item   6 -- Length:   51  Offset: 7856 (0x1eb0)  Flags: NORMAL
COPY: 169	one hundred sixty-nine
 Item   7 -- Length:   48  Offset: 7808 (0x1e80)  Flags: NORMAL
COPY: 170	one hundred seventy
 Item   8 -- Length:   52  Offset: 7752 (0x1e48)  Flags: NORMAL
COPY: 171	one hundred seventy-one
 Item   9 -- Length:   52  Offset: 7696 (0x1e10)  Flags: NORMAL
COPY: 172	one hundred seventy-two
 Item  10 -- Length:   54  Offset: 7640 (0x1dd8)  Flags: NORMAL
COPY: 173	one hundred seventy-three
 Item  11 -- Length:   53  Offset: 7584 (0x1da0)  Flags: NORMAL
COPY: 174	one hundred seventy-four
 Item  12 -- Length:   53  Offset: 7528 (0x1d68)  Flags: NORMAL
COPY: 175	one hundred seventy-five
 Item  13 -- Length:   52  Offset: 7472 (0x1d30)  Flags: NORMAL
COPY: 176	one hundred seventy-six
 Item  14 -- Length:   54  Offset: 7416 (0x1cf8)  Flags: NORMAL
COPY: 177	one hundred seventy-seven
 Item  15 -- Length:   54  Offset: 7360 (0x1cc0)  Flags: NORMAL
COPY: 178	one hundred seventy-eight
 Item  16 -- Length:   53  Offset: 7304 (0x1c88)  Flags: NORMAL
COPY: 179	one hundred seventy-nine
 Item  17 -- Length:   47  Offset: 7256 (0x1c58)  Flags: NORMAL
COPY: 180	one hundred eighty
 Item  18 -- Length:   51  Offset: 7200 (0x1c20)  Flags: NORMAL
COPY: 181	one hundred eighty-one
 Item  19 -- Length:   51  Offset: 7144 (0x1be8)  Flags: NORMAL
COPY: 182	one hundred eighty-two
 Item  20 -- Length:   53  Offset: 7088 (0x1bb0)  Flags: NORMAL
COPY: 183	one hundred eighty-three
 Item  21 -- Length:   52  Offset: 7032 (0x1b78)  Flags: NORMAL
COPY: 184	one hundred eighty-four
 Item  22 -- Length:   52  Offset: 6976 (0x1b40)  Flags: NORMAL
COPY: 185	one hundred eighty-five
 Item  23 -- Length:   51  Offset: 6920 (0x1b08)  Flags: NORMAL
COPY: 186	one hundred eighty-six
 Item  24 -- Length:   53  Offset: 6864 (0x1ad0)  Flags: NORMAL
COPY: 187	one hundred eighty-seven
 Item  25 -- Length:   53  Offset: 6808 (0x1a98)  Flags: NORMAL
COPY: 188	one hundred eighty-eight
 Item  26 -- Length:   52  Offset: 6752 (0x1a60)  Flags: NORMAL
COPY: 189	one hundred eighty-nine
 Item  27 -- Length:   47  Offset: 6704 (0x1a30)  Flags: NORMAL
COPY: 190	one hundred ninety
 Item  28 -- Length:   51  Offset: 6648 (0x19f8)  Flags: NORMAL
COPY: 191	one hundred ninety-one
 Item  29 -- Length:   51  Offset: 6592 (0x19c0)  Flags: NORMAL
COPY: 192	one hundred ninety-two
 Item  30 -- Length:   53  Offset: 6536 (0x1988)  Flags: NORMAL
COPY: 193	one hundred ninety-three
 Item  31 -- Length:   52  Offset: 6480 (0x1950)  Flags: NORMAL
COPY: 194	one hundred ninety-four
 Item  32 -- Length:   52  Offset: 6424 (0x1918)  Flags: NORMAL
COPY: 195	one hundred ninety-five
 Item  33 -- Length:   51  Offset: 6368 (0x18e0)  Flags: NORMAL
COPY: 196	one hundred ninety-six
 Item  34 -- Length:   53  Offset: 6312 (0x18a8)  Flags: NORMAL
COPY: 197	one hundred ninety-seven
 Item  35 -- Length:   53  Offset: 6256 (0x1870)  Flags: NORMAL
COPY: 198	one hundred ninety-eight
 Item  36 -- Length:   52  Offset: 6200 (0x1838)  Flags: NORMAL
COPY: 199	one hundred ninety-nine
 Item  37 -- Length:   40  Offset: 6160 (0x1810)  Flags: NORMAL
COPY: 200	two hundred


*** End of File Encountered. Last Block Read: 1 ***
